{
  "_format": "hh-sol-artifact-1",
  "contractName": "MessageProxyForSchain",
  "sourceName": "contracts/schain/MessageProxyForSchain.sol",
  "abi": [
    {
      "anonymous": false,
      "inputs": [
        {
          "indexed": false,
          "internalType": "uint256",
          "name": "oldValue",
          "type": "uint256"
        },
        {
          "indexed": false,
          "internalType": "uint256",
          "name": "newValue",
          "type": "uint256"
        }
      ],
      "name": "GasLimitWasChanged",
      "type": "event"
    },
    {
      "anonymous": false,
      "inputs": [
        {
          "indexed": true,
          "internalType": "bytes32",
          "name": "dstChainHash",
          "type": "bytes32"
        },
        {
          "indexed": true,
          "internalType": "uint256",
          "name": "msgCounter",
          "type": "uint256"
        },
        {
          "indexed": true,
          "internalType": "address",
          "name": "srcContract",
          "type": "address"
        },
        {
          "indexed": false,
          "internalType": "address",
          "name": "dstContract",
          "type": "address"
        },
        {
          "indexed": false,
          "internalType": "bytes",
          "name": "data",
          "type": "bytes"
        }
      ],
      "name": "OutgoingMessage",
      "type": "event"
    },
    {
      "anonymous": false,
      "inputs": [
        {
          "indexed": true,
          "internalType": "uint256",
          "name": "msgCounter",
          "type": "uint256"
        },
        {
          "indexed": false,
          "internalType": "bytes",
          "name": "message",
          "type": "bytes"
        }
      ],
      "name": "PostMessageError",
      "type": "event"
    },
    {
      "anonymous": false,
      "inputs": [
        {
          "indexed": true,
          "internalType": "bytes32",
          "name": "role",
          "type": "bytes32"
        },
        {
          "indexed": true,
          "internalType": "bytes32",
          "name": "previousAdminRole",
          "type": "bytes32"
        },
        {
          "indexed": true,
          "internalType": "bytes32",
          "name": "newAdminRole",
          "type": "bytes32"
        }
      ],
      "name": "RoleAdminChanged",
      "type": "event"
    },
    {
      "anonymous": false,
      "inputs": [
        {
          "indexed": true,
          "internalType": "bytes32",
          "name": "role",
          "type": "bytes32"
        },
        {
          "indexed": true,
          "internalType": "address",
          "name": "account",
          "type": "address"
        },
        {
          "indexed": true,
          "internalType": "address",
          "name": "sender",
          "type": "address"
        }
      ],
      "name": "RoleGranted",
      "type": "event"
    },
    {
      "anonymous": false,
      "inputs": [
        {
          "indexed": true,
          "internalType": "bytes32",
          "name": "role",
          "type": "bytes32"
        },
        {
          "indexed": true,
          "internalType": "address",
          "name": "account",
          "type": "address"
        },
        {
          "indexed": true,
          "internalType": "address",
          "name": "sender",
          "type": "address"
        }
      ],
      "name": "RoleRevoked",
      "type": "event"
    },
    {
      "inputs": [],
      "name": "CHAIN_CONNECTOR_ROLE",
      "outputs": [
        {
          "internalType": "bytes32",
          "name": "",
          "type": "bytes32"
        }
      ],
      "stateMutability": "view",
      "type": "function"
    },
    {
      "inputs": [],
      "name": "CONSTANT_SETTER_ROLE",
      "outputs": [
        {
          "internalType": "bytes32",
          "name": "",
          "type": "bytes32"
        }
      ],
      "stateMutability": "view",
      "type": "function"
    },
    {
      "inputs": [],
      "name": "DEFAULT_ADMIN_ROLE",
      "outputs": [
        {
          "internalType": "bytes32",
          "name": "",
          "type": "bytes32"
        }
      ],
      "stateMutability": "view",
      "type": "function"
    },
    {
      "inputs": [],
      "name": "EXTRA_CONTRACT_REGISTRAR_ROLE",
      "outputs": [
        {
          "internalType": "bytes32",
          "name": "",
          "type": "bytes32"
        }
      ],
      "stateMutability": "view",
      "type": "function"
    },
    {
      "inputs": [],
      "name": "MAINNET_HASH",
      "outputs": [
        {
          "internalType": "bytes32",
          "name": "",
          "type": "bytes32"
        }
      ],
      "stateMutability": "view",
      "type": "function"
    },
    {
      "inputs": [],
      "name": "MESSAGES_LENGTH",
      "outputs": [
        {
          "internalType": "uint256",
          "name": "",
          "type": "uint256"
        }
      ],
      "stateMutability": "view",
      "type": "function"
    },
    {
      "inputs": [
        {
          "internalType": "string",
          "name": "chainName",
          "type": "string"
        }
      ],
      "name": "addConnectedChain",
      "outputs": [],
      "stateMutability": "nonpayable",
      "type": "function"
    },
    {
      "inputs": [
        {
          "internalType": "bytes32",
          "name": "",
          "type": "bytes32"
        }
      ],
      "name": "connectedChains",
      "outputs": [
        {
          "internalType": "uint256",
          "name": "incomingMessageCounter",
          "type": "uint256"
        },
        {
          "internalType": "uint256",
          "name": "outgoingMessageCounter",
          "type": "uint256"
        },
        {
          "internalType": "bool",
          "name": "inited",
          "type": "bool"
        }
      ],
      "stateMutability": "view",
      "type": "function"
    },
    {
      "inputs": [],
      "name": "gasLimit",
      "outputs": [
        {
          "internalType": "uint256",
          "name": "",
          "type": "uint256"
        }
      ],
      "stateMutability": "view",
      "type": "function"
    },
    {
      "inputs": [
        {
          "internalType": "string",
          "name": "fromSchainName",
          "type": "string"
        }
      ],
      "name": "getIncomingMessagesCounter",
      "outputs": [
        {
          "internalType": "uint256",
          "name": "",
          "type": "uint256"
        }
      ],
      "stateMutability": "view",
      "type": "function"
    },
    {
      "inputs": [
        {
          "internalType": "string",
          "name": "targetSchainName",
          "type": "string"
        }
      ],
      "name": "getOutgoingMessagesCounter",
      "outputs": [
        {
          "internalType": "uint256",
          "name": "",
          "type": "uint256"
        }
      ],
      "stateMutability": "view",
      "type": "function"
    },
    {
      "inputs": [
        {
          "internalType": "bytes32",
          "name": "role",
          "type": "bytes32"
        }
      ],
      "name": "getRoleAdmin",
      "outputs": [
        {
          "internalType": "bytes32",
          "name": "",
          "type": "bytes32"
        }
      ],
      "stateMutability": "view",
      "type": "function"
    },
    {
      "inputs": [
        {
          "internalType": "bytes32",
          "name": "role",
          "type": "bytes32"
        },
        {
          "internalType": "uint256",
          "name": "index",
          "type": "uint256"
        }
      ],
      "name": "getRoleMember",
      "outputs": [
        {
          "internalType": "address",
          "name": "",
          "type": "address"
        }
      ],
      "stateMutability": "view",
      "type": "function"
    },
    {
      "inputs": [
        {
          "internalType": "bytes32",
          "name": "role",
          "type": "bytes32"
        }
      ],
      "name": "getRoleMemberCount",
      "outputs": [
        {
          "internalType": "uint256",
          "name": "",
          "type": "uint256"
        }
      ],
      "stateMutability": "view",
      "type": "function"
    },
    {
      "inputs": [
        {
          "internalType": "bytes32",
          "name": "role",
          "type": "bytes32"
        },
        {
          "internalType": "address",
          "name": "account",
          "type": "address"
        }
      ],
      "name": "grantRole",
      "outputs": [],
      "stateMutability": "nonpayable",
      "type": "function"
    },
    {
      "inputs": [
        {
          "internalType": "bytes32",
          "name": "role",
          "type": "bytes32"
        },
        {
          "internalType": "address",
          "name": "account",
          "type": "address"
        }
      ],
      "name": "hasRole",
      "outputs": [
        {
          "internalType": "bool",
          "name": "",
          "type": "bool"
        }
      ],
      "stateMutability": "view",
      "type": "function"
    },
    {
      "inputs": [
        {
          "internalType": "contract KeyStorage",
          "name": "blsKeyStorage",
          "type": "address"
        },
        {
          "internalType": "string",
          "name": "schainName",
          "type": "string"
        }
      ],
      "name": "initialize",
      "outputs": [],
      "stateMutability": "nonpayable",
      "type": "function"
    },
    {
      "inputs": [
        {
          "internalType": "uint256",
          "name": "newGasLimit",
          "type": "uint256"
        }
      ],
      "name": "initializeMessageProxy",
      "outputs": [],
      "stateMutability": "nonpayable",
      "type": "function"
    },
    {
      "inputs": [
        {
          "internalType": "string",
          "name": "schainName",
          "type": "string"
        }
      ],
      "name": "isConnectedChain",
      "outputs": [
        {
          "internalType": "bool",
          "name": "",
          "type": "bool"
        }
      ],
      "stateMutability": "view",
      "type": "function"
    },
    {
      "inputs": [
        {
          "internalType": "string",
          "name": "schainName",
          "type": "string"
        },
        {
          "internalType": "address",
          "name": "contractAddress",
          "type": "address"
        }
      ],
      "name": "isContractRegistered",
      "outputs": [
        {
          "internalType": "bool",
          "name": "",
          "type": "bool"
        }
      ],
      "stateMutability": "view",
      "type": "function"
    },
    {
      "inputs": [],
      "name": "keyStorage",
      "outputs": [
        {
          "internalType": "contract KeyStorage",
          "name": "",
          "type": "address"
        }
      ],
      "stateMutability": "view",
      "type": "function"
    },
    {
      "inputs": [
        {
          "internalType": "string",
          "name": "fromChainName",
          "type": "string"
        },
        {
          "internalType": "uint256",
          "name": "startingCounter",
          "type": "uint256"
        },
        {
          "components": [
            {
              "internalType": "address",
              "name": "sender",
              "type": "address"
            },
            {
              "internalType": "address",
              "name": "destinationContract",
              "type": "address"
            },
            {
              "internalType": "bytes",
              "name": "data",
              "type": "bytes"
            }
          ],
          "internalType": "struct MessageProxy.Message[]",
          "name": "messages",
          "type": "tuple[]"
        },
        {
          "components": [
            {
              "internalType": "uint256[2]",
              "name": "blsSignature",
              "type": "uint256[2]"
            },
            {
              "internalType": "uint256",
              "name": "hashA",
              "type": "uint256"
            },
            {
              "internalType": "uint256",
              "name": "hashB",
              "type": "uint256"
            },
            {
              "internalType": "uint256",
              "name": "counter",
              "type": "uint256"
            }
          ],
          "internalType": "struct MessageProxy.Signature",
          "name": "signature",
          "type": "tuple"
        }
      ],
      "name": "postIncomingMessages",
      "outputs": [],
      "stateMutability": "nonpayable",
      "type": "function"
    },
    {
      "inputs": [
        {
          "internalType": "bytes32",
          "name": "targetChainHash",
          "type": "bytes32"
        },
        {
          "internalType": "address",
          "name": "targetContract",
          "type": "address"
        },
        {
          "internalType": "bytes",
          "name": "data",
          "type": "bytes"
        }
      ],
      "name": "postOutgoingMessage",
      "outputs": [],
      "stateMutability": "nonpayable",
      "type": "function"
    },
    {
      "inputs": [
        {
          "internalType": "string",
          "name": "chainName",
          "type": "string"
        },
        {
          "internalType": "address",
          "name": "extraContract",
          "type": "address"
        }
      ],
      "name": "registerExtraContract",
      "outputs": [],
      "stateMutability": "nonpayable",
      "type": "function"
    },
    {
      "inputs": [
        {
          "internalType": "address",
          "name": "extraContract",
          "type": "address"
        }
      ],
      "name": "registerExtraContractForAll",
      "outputs": [],
      "stateMutability": "nonpayable",
      "type": "function"
    },
    {
      "inputs": [
        {
          "internalType": "bytes32",
          "name": "",
          "type": "bytes32"
        },
        {
          "internalType": "address",
          "name": "",
          "type": "address"
        }
      ],
      "name": "registryContracts",
      "outputs": [
        {
          "internalType": "bool",
          "name": "",
          "type": "bool"
        }
      ],
      "stateMutability": "view",
      "type": "function"
    },
    {
      "inputs": [
        {
          "internalType": "string",
          "name": "chainName",
          "type": "string"
        }
      ],
      "name": "removeConnectedChain",
      "outputs": [],
      "stateMutability": "nonpayable",
      "type": "function"
    },
    {
      "inputs": [
        {
          "internalType": "string",
          "name": "chainName",
          "type": "string"
        },
        {
          "internalType": "address",
          "name": "extraContract",
          "type": "address"
        }
      ],
      "name": "removeExtraContract",
      "outputs": [],
      "stateMutability": "nonpayable",
      "type": "function"
    },
    {
      "inputs": [
        {
          "internalType": "address",
          "name": "extraContract",
          "type": "address"
        }
      ],
      "name": "removeExtraContractForAll",
      "outputs": [],
      "stateMutability": "nonpayable",
      "type": "function"
    },
    {
      "inputs": [
        {
          "internalType": "bytes32",
          "name": "role",
          "type": "bytes32"
        },
        {
          "internalType": "address",
          "name": "account",
          "type": "address"
        }
      ],
      "name": "renounceRole",
      "outputs": [],
      "stateMutability": "nonpayable",
      "type": "function"
    },
    {
      "inputs": [
        {
          "internalType": "bytes32",
          "name": "role",
          "type": "bytes32"
        },
        {
          "internalType": "address",
          "name": "account",
          "type": "address"
        }
      ],
      "name": "revokeRole",
      "outputs": [],
      "stateMutability": "nonpayable",
      "type": "function"
    },
    {
      "inputs": [],
      "name": "schainHash",
      "outputs": [
        {
          "internalType": "bytes32",
          "name": "",
          "type": "bytes32"
        }
      ],
      "stateMutability": "view",
      "type": "function"
    },
    {
      "inputs": [
        {
          "internalType": "uint256",
          "name": "newGasLimit",
          "type": "uint256"
        }
      ],
      "name": "setNewGasLimit",
      "outputs": [],
      "stateMutability": "nonpayable",
      "type": "function"
    },
    {
      "inputs": [
        {
          "internalType": "bytes4",
          "name": "interfaceId",
          "type": "bytes4"
        }
      ],
      "name": "supportsInterface",
      "outputs": [
        {
          "internalType": "bool",
          "name": "",
          "type": "bool"
        }
      ],
      "stateMutability": "view",
      "type": "function"
    },
    {
      "inputs": [
        {
          "components": [
            {
              "internalType": "bytes32",
              "name": "dstChain",
              "type": "bytes32"
            },
            {
              "internalType": "uint256",
              "name": "msgCounter",
              "type": "uint256"
            },
            {
              "internalType": "address",
              "name": "srcContract",
              "type": "address"
            },
            {
              "internalType": "address",
              "name": "dstContract",
              "type": "address"
            },
            {
              "internalType": "bytes",
              "name": "data",
              "type": "bytes"
            }
          ],
          "internalType": "struct MessageProxyForSchain.OutgoingMessageData",
          "name": "message",
          "type": "tuple"
        }
      ],
      "name": "verifyOutgoingMessageData",
      "outputs": [
        {
          "internalType": "bool",
          "name": "isValidMessage",
          "type": "bool"
        }
      ],
      "stateMutability": "view",
      "type": "function"
    }
  ],
  "bytecode": "0x608060405234801561001057600080fd5b5061380a806100206000396000f3fe608060405234801561001057600080fd5b50600436106102115760003560e01c80639010d07c11610125578063cab010c9116100ad578063f2f636051161007c578063f2f636051461050b578063f399e22e1461051e578063f68016b714610531578063f79f79541461053a578063f8c88a161461054d57600080fd5b8063cab010c914610483578063d547741f14610496578063e356a6f9146104a9578063e6ab8403146104bc57600080fd5b8063a217fddf116100f4578063a217fddf14610426578063a8bb1b7d1461042e578063bbc4e8c214610441578063bdb40cb014610468578063ca15c8731461047057600080fd5b80639010d07c146103c257806391d14854146103ed5780639448920214610400578063999ab9aa1461041357600080fd5b80633cdd2cc3116101a857806367ec60201161017757806367ec6020146103485780636e2f37b01461035b57806377fe0f311461036e5780637aa38a7c146103815780637c5ad80c1461039457600080fd5b80633cdd2cc3146102fa5780634d2038591461030d578063523c8ab614610320578063603e5d131461033557600080fd5b80632f2ff15d116101e45780632f2ff15d146102b657806336568abe146102cb5780633b597ffe146102de5780633b690b6b146102f157600080fd5b806301ffc9a71461021657806313c522601461023e578063248a9ca31461026157806328c5e18214610284575b600080fd5b610229610224366004612e11565b610560565b60405190151581526020015b60405180910390f35b6102536000805160206137b583398151915281565b604051908152602001610235565b61025361026f366004612d4e565b60009081526065602052604090206001015490565b6102536040516613585a5b9b995d60ca1b60208201526027016040516020818303038152906040528051906020012081565b6102c96102c4366004612d67565b61058b565b005b6102c96102d9366004612d67565b6105b2565b6102c96102ec366004612d4e565b6105d4565b61025360cd5481565b6102c9610308366004612fdb565b61069f565b6102c961031b366004612d14565b61078d565b61025360008051602061375583398151915281565b6102c9610343366004612f21565b61088f565b610253610356366004612e8a565b610ac6565b6102c9610369366004612d4e565b610b3f565b61025361037c366004612e8a565b610c59565b61022961038f366004613098565b610cff565b6102296103a2366004612d67565b60ca60209081526000928352604080842090915290825290205460ff1681565b6103d56103d0366004612def565b610d39565b6040516001600160a01b039091168152602001610235565b6102296103fb366004612d67565b610d58565b6102c961040e366004612d97565b610d83565b610229610421366004612fdb565b610e39565b610253600081565b6102c961043c366004612d14565b610e82565b6102537f96e3fc3be15159903e053027cff8a23f39a990e0194abcd8ac1cf1b355b8b93c81565b610253600a81565b61025361047e366004612d4e565b610f59565b6102c961049136600461300f565b610f70565b6102c96104a4366004612d67565b610ffb565b6102296104b7366004612ecb565b611005565b6104ee6104ca366004612d4e565b60c96020526000908152604090208054600182015460029092015490919060ff1683565b604080519384526020840192909252151590820152606001610235565b6102c9610519366004612e8a565b611093565b6102c961052c366004612e3b565b61111b565b61025360cb5481565b60cc546103d5906001600160a01b031681565b6102c961055b36600461300f565b611262565b60006001600160e01b03198216635a05180f60e01b14806105855750610585826112ed565b92915050565b6105958282611322565b60008281526097602052604090206105ad9082611348565b505050565b6105bc828261135d565b60008281526097602052604090206105ad90826113d7565b6105fe7f96e3fc3be15159903e053027cff8a23f39a990e0194abcd8ac1cf1b355b8b93c33610d58565b61065e5760405162461bcd60e51b815260206004820152602660248201527f4e6f7420656e6f756768207065726d697373696f6e7320746f2073657420636f6044820152651b9cdd185b9d60d21b60648201526084015b60405180910390fd5b60cb5460408051918252602082018390527f8abddb75fd50f7583079c0b550ec7a54fa3fd8d5dd1d2dfdc473f7ce27e3b9ac910160405180910390a160cb55565b6106b76000805160206137b583398151915233610d58565b6106d35760405162461bcd60e51b8152600401610655906132f0565b6000816040516020016106e691906131e1565b60405160208183030381529060405280519060200120905060405160200161071b906613585a5b9b995d60ca1b815260070190565b604051602081830303815290604052805190602001208114156107805760405162461bcd60e51b815260206004820152601960248201527f4d61696e6e65742063616e6e6f742062652072656d6f766564000000000000006044820152606401610655565b610789826113ec565b5050565b6107a560008051602061375583398151915233610d58565b6107c15760405162461bcd60e51b815260040161065590613325565b6001600160a01b0381163b6108185760405162461bcd60e51b815260206004820152601f60248201527f476976656e2061646472657373206973206e6f74206120636f6e7472616374006044820152606401610655565b6001600160a01b0381166000908152600080516020613795833981519152602052604090205460ff161561085e5760405162461bcd60e51b815260040161065590613444565b6001600160a01b0316600090815260008051602061379583398151915260205260409020805460ff19166001179055565b600086866040516020016108a49291906131d1565b60408051601f198184030181529181528151602092830120600081815260c990935291206002015490915060ff166109195760405162461bcd60e51b815260206004820152601860248201527710da185a5b881a5cc81b9bdd081a5b9a5d1a585b1a5e995960421b6044820152606401610655565b600a83111561095e5760405162461bcd60e51b8152602060048201526011602482015270546f6f206d616e79206d6573736167657360781b6044820152606401610655565b61097461096e8585888b8b6114cf565b8361164a565b6109c05760405162461bcd60e51b815260206004820152601960248201527f5369676e6174757265206973206e6f74207665726966696564000000000000006044820152606401610655565b600081815260c960205260409020548514610a435760405162461bcd60e51b815260206004820152603860248201527f5374617274696e6720636f756e746572206973206e6f74207175616c20746f2060448201527f696e636f6d696e67206d65737361676520636f756e74657200000000000000006064820152608401610655565b60005b83811015610a9957610a8682868684818110610a6457610a6461366e565b9050602002810190610a7691906134ce565b610a818960016134e4565b6116f7565b5080610a91816135fd565b915050610a46565b50600081815260c9602052604081208054859290610ab89084906134e4565b909155505050505050505050565b6000808383604051602001610adc9291906131d1565b60408051601f198184030181529181528151602092830120600081815260c990935291206002015490915060ff16610b265760405162461bcd60e51b815260040161065590613400565b600090815260c960205260409020600101549392505050565b600054610100900460ff1680610b58575060005460ff16155b610b745760405162461bcd60e51b81526004016106559061336e565b600054610100900460ff16158015610b96576000805461ffff19166101011790555b610b9e61187c565b610ba9600033611908565b610bc16000805160206137b583398151915233611908565b610bd960008051602061375583398151915233611908565b610c037f96e3fc3be15159903e053027cff8a23f39a990e0194abcd8ac1cf1b355b8b93c33611908565b60cb5460408051918252602082018490527f8abddb75fd50f7583079c0b550ec7a54fa3fd8d5dd1d2dfdc473f7ce27e3b9ac910160405180910390a160cb8290558015610789576000805461ff00191690555050565b6000808383604051602001610c6f9291906131d1565b60408051601f198184030181529181528151602092830120600081815260c990935291206002015490915060ff16610ce95760405162461bcd60e51b815260206004820152601f60248201527f536f7572636520636861696e206973206e6f7420696e697469616c697a6564006044820152606401610655565b600090815260c960205260409020549392505050565b8051600090815260ce60209081526040808320828501518452909152812054610d2783611912565b811415610d3357600191505b50919050565b6000828152609760205260408120610d519083611988565b9392505050565b60009182526065602090815260408084206001600160a01b0393909316845291905290205460ff1690565b610d8e838383611994565b60006040518060a00160405280858152602001600160c9600088815260200190815260200160002060010154610dc4919061352f565b81523360208201526001600160a01b03851660408201526060018390528051909150610def82611912565b600082815260ce6020908152604080832060d08084528285208054865291845291842094909455848352905281546001929190610e2d9084906134e4565b90915550505050505050565b600060c9600083604051602001610e5091906131e1565b60408051601f198184030181529181528151602092830120835290820192909252016000206002015460ff1692915050565b610e9a60008051602061375583398151915233610d58565b610eb65760405162461bcd60e51b815260040161065590613325565b6001600160a01b0381166000908152600080516020613795833981519152602052604090205460ff16610f2b5760405162461bcd60e51b815260206004820181905260248201527f457874726120636f6e7472616374206973206e6f7420726567697374657265646044820152606401610655565b6001600160a01b0316600090815260008051602061379583398151915260205260409020805460ff19169055565b600081815260976020526040812061058590611aeb565b610f8860008051602061375583398151915233610d58565b610fa45760405162461bcd60e51b815260040161065590613325565b600082604051602001610fb791906131e1565b60405160208183030381529060405280519060200120905060cd54811415610ff15760405162461bcd60e51b8152600401610655906133bc565b6105ad8183611af5565b6105bc8282611c51565b600060ca6000858560405160200161101e9291906131d1565b60408051601f19818403018152918152815160209283012083528282019390935290820160009081206001600160a01b0386168252909152205460ff168061108b57506001600160a01b0382166000908152600080516020613795833981519152602052604090205460ff165b949350505050565b600082826040516020016110a89291906131d1565b60405160208183030381529060405280519060200120905060cd548114156111125760405162461bcd60e51b815260206004820152601c60248201527f53636861696e2063616e6e6f7420636f6e6e65637420697473656c66000000006044820152606401610655565b6105ad81611c77565b600054610100900460ff1680611134575060005460ff16155b6111505760405162461bcd60e51b81526004016106559061336e565b600054610100900460ff16158015611172576000805461ffff19166101011790555b61117e622dc6c0610b3f565b60cc80546001600160a01b0385166001600160a01b031990911617905560408051606081018252600080825260208083018290526001838501529251919260c9926111d791016613585a5b9b995d60ca1b815260070190565b60408051808303601f19018152918152815160209283012083528282019390935290820160002083518155838201516001820155928201516002909301805460ff19169315159390931790925551611231918491016131e1565b60408051601f19818403018152919052805160209091012060cd5580156105ad576000805461ff0019169055505050565b61127a60008051602061375583398151915233610d58565b6112965760405162461bcd60e51b815260040161065590613325565b6000826040516020016112a991906131e1565b60405160208183030381529060405280519060200120905060cd548114156112e35760405162461bcd60e51b8152600401610655906133bc565b6105ad8183611d5d565b60006001600160e01b03198216637965db0b60e01b148061058557506301ffc9a760e01b6001600160e01b0319831614610585565b60008281526065602052604090206001015461133e8133611dfc565b6105ad8383611e60565b6000610d51836001600160a01b038416611ee6565b6001600160a01b03811633146113cd5760405162461bcd60e51b815260206004820152602f60248201527f416363657373436f6e74726f6c3a2063616e206f6e6c792072656e6f756e636560448201526e103937b632b9903337b91039b2b63360891b6064820152608401610655565b6107898282611f35565b6000610d51836001600160a01b038416611f9c565b6114046000805160206137b583398151915233610d58565b6114205760405162461bcd60e51b8152600401610655906132f0565b60008160405160200161143391906131e1565b60408051601f198184030181529181528151602092830120600081815260c990935291206002015490915060ff166114a85760405162461bcd60e51b815260206004820152601860248201527710da185a5b881a5cc81b9bdd081a5b9a5d1a585b1a5e995960421b6044820152606401610655565b600090815260c9602052604081208181556001810191909155600201805460ff1916905550565b60008083836040516020016114e59291906131d1565b60408051808303601f190181528282528051602091820120908301819052908201879052915060009060600160405160208183030381529060405280519060200120905060005b8781101561163e57818989838181106115475761154761366e565b905060200281019061155991906134ce565b611567906020810190612d14565b8a8a848181106115795761157961366e565b905060200281019061158b91906134ce565b61159c906040810190602001612d14565b6040805160208101949094526001600160a01b03928316908401521660608201526080016040516020818303038152906040528989838181106115e1576115e161366e565b90506020028101906115f391906134ce565b611601906040810190613488565b604051602001611613939291906131a9565b6040516020818303038152906040528051906020012091508080611636906135fd565b91505061152c565b50979650505050505050565b604080518082018252823581526020808401359082015260cc548251632aa77bd360e11b81528351600094610d51949388936080808a013594938a01359360608b0135936001600160a01b03169263554ef7a6926004808301939192829003018186803b1580156116ba57600080fd5b505afa1580156116ce573d6000803e3d6000fd5b505050506040513d601f19601f820116820180604052508101906116f29190613055565b612096565b60006117096040840160208501612d14565b6001600160a01b031663884cee5a60cb548686600001602081019061172e9190612d14565b61173b6040890189613488565b6040518663ffffffff1660e01b815260040161175a9493929190613296565b602060405180830381600088803b15801561177457600080fd5b5087f1935050505080156117a5575060408051601f3d908101601f191682019092526117a291810190612d31565b60015b611875576117b161369a565b806308c379a0141561181357506117c66136b6565b806117d15750611815565b827f4b7d3908626050c0d998d657e4e6f31cb43ed736bf2b9a1a0192494537ca0e598260405161180191906132dd565b60405180910390a26000915050610d51565b505b3d80801561183f576040519150601f19603f3d011682016040523d82523d6000602084013e611844565b606091505b50827f4b7d3908626050c0d998d657e4e6f31cb43ed736bf2b9a1a0192494537ca0e598260405161180191906132dd565b9050610d51565b600054610100900460ff1680611895575060005460ff16155b6118b15760405162461bcd60e51b81526004016106559061336e565b600054610100900460ff161580156118d3576000805461ffff19166101011790555b6118db612260565b6118e3612260565b6118eb612260565b6118f3612260565b8015611905576000805461ff00191690555b50565b61059582826122ca565b6000808260000151836020015160001b846040015160601b6bffffffffffffffffffffffff1916856060015160601b6bffffffffffffffffffffffff1916866080015160405160200161196995949392919061316e565b60408051601f1981840301815291905280516020909101209392505050565b6000610d5183836122d4565b600083815260c9602052604090206002015460ff166119c55760405162461bcd60e51b815260040161065590613400565b336000908152600080516020613795833981519152602052604090205460ff1680611a095750600083815260ca6020908152604080832033845290915290205460ff165b611a5f5760405162461bcd60e51b815260206004820152602160248201527f53656e64657220636f6e7472616374206973206e6f74207265676973746572656044820152601960fa1b6064820152608401610655565b336001600160a01b031660c9600085815260200190815260200160002060010154847f803d7f3ca0e5f93fcce39fa29812ed57a95a151594966e17125220132741c6b08585604051611ab2929190613272565b60405180910390a4600160c960008581526020019081526020016000206001016000828254611ae191906134e4565b9091555050505050565b6000610585825490565b6001600160a01b0381163b611b4c5760405162461bcd60e51b815260206004820152601f60248201527f476976656e2061646472657373206973206e6f74206120636f6e7472616374006044820152606401610655565b600082815260ca602090815260408083206001600160a01b038516845290915290205460ff1615611b8f5760405162461bcd60e51b815260040161065590613444565b6001600160a01b0381166000908152600080516020613795833981519152602052604090205460ff1615611c215760405162461bcd60e51b815260206004820152603360248201527f457874726120636f6e747261637420697320616c7265616479207265676973746044820152726572656420666f7220616c6c20636861696e7360681b6064820152608401610655565b600091825260ca602090815260408084206001600160a01b0390931684529190529020805460ff19166001179055565b600082815260656020526040902060010154611c6d8133611dfc565b6105ad8383611f35565b611c8f6000805160206137b583398151915233610d58565b611cab5760405162461bcd60e51b8152600401610655906132f0565b600081815260c9602052604090206002015460ff1615611d0d5760405162461bcd60e51b815260206004820152601a60248201527f436861696e20697320616c726561647920636f6e6e65637465640000000000006044820152606401610655565b6040805160608101825260008082526020808301828152600184860181815296845260c9909252939091209151825591519181019190915590516002909101805460ff1916911515919091179055565b600082815260ca602090815260408083206001600160a01b038516845290915290205460ff16611dcf5760405162461bcd60e51b815260206004820181905260248201527f457874726120636f6e7472616374206973206e6f7420726567697374657265646044820152606401610655565b600091825260ca602090815260408084206001600160a01b0390931684529190529020805460ff19169055565b611e068282610d58565b61078957611e1e816001600160a01b031660146122fe565b611e298360206122fe565b604051602001611e3a9291906131fd565b60408051601f198184030181529082905262461bcd60e51b8252610655916004016132dd565b611e6a8282610d58565b6107895760008281526065602090815260408083206001600160a01b03851684529091529020805460ff19166001179055611ea23390565b6001600160a01b0316816001600160a01b0316837f2f8788117e7eff1d82e926ec794901d17c78024a50270940304540a733656f0d60405160405180910390a45050565b6000818152600183016020526040812054611f2d57508154600181810184556000848152602080822090930184905584548482528286019093526040902091909155610585565b506000610585565b611f3f8282610d58565b156107895760008281526065602090815260408083206001600160a01b0385168085529252808320805460ff1916905551339285917ff6391f5c32d9c69d2a47ea670b442974b53935d1edc7fd64eb21e047a839171b9190a45050565b60008181526001830160205260408120548015612085576000611fc060018361352f565b8554909150600090611fd49060019061352f565b9050818114612039576000866000018281548110611ff457611ff461366e565b90600052602060002001549050808760000184815481106120175761201761366e565b6000918252602080832090910192909255918252600188019052604090208390555b855486908061204a5761204a613658565b600190038181906000526020600020016000905590558560010160008681526020019081526020016000206000905560019350505050610585565b6000915050610585565b5092915050565b60006120a187612499565b6120e65760405162461bcd60e51b815260206004820152601660248201527514da59db985d1d5c99481a5cc81b9bdd081d985b1a5960521b6044820152606401610655565b6120f2868686866124cf565b6120fe57506000612256565b600061210d88602001516125bb565b905061211d8860000151826125e0565b61215a5760405162461bcd60e51b815260206004820152600e60248201526d5369676e206e6f7420696e20473160901b6044820152606401610655565b61216485856125e0565b6121a15760405162461bcd60e51b815260206004820152600e60248201526d48617368206e6f7420696e20473160901b6044820152606401610655565b60006121ab612616565b90506121b6846126d6565b6121f95760405162461bcd60e51b8152602060048201526014602482015273283ab13634b19025b2bc903737ba1034b710239960611b6044820152606401610655565b6122518960000151838360000151602001518460000151600001518560200151602001518660200151600001518c8c8c60000151602001518d60000151600001518e60200151602001518f60200151600001516126ea565b925050505b9695505050505050565b600054610100900460ff1680612279575060005460ff16155b6122955760405162461bcd60e51b81526004016106559061336e565b600054610100900460ff161580156118f3576000805461ffff19166101011790558015611905576000805461ff001916905550565b6107898282611e60565b60008260000182815481106122eb576122eb61366e565b9060005260206000200154905092915050565b6060600061230d836002613510565b6123189060026134e4565b6001600160401b0381111561232f5761232f613684565b6040519080825280601f01601f191660200182016040528015612359576020820181803683370190505b509050600360fc1b816000815181106123745761237461366e565b60200101906001600160f81b031916908160001a905350600f60fb1b816001815181106123a3576123a361366e565b60200101906001600160f81b031916908160001a90535060006123c7846002613510565b6123d29060016134e4565b90505b600181111561244a576f181899199a1a9b1b9c1cb0b131b232b360811b85600f16601081106124065761240661366e565b1a60f81b82828151811061241c5761241c61366e565b60200101906001600160f81b031916908160001a90535060049490941c9361244381613576565b90506123d5565b508315610d515760405162461bcd60e51b815260206004820181905260248201527f537472696e67733a20686578206c656e67746820696e73756666696369656e746044820152606401610655565b60006000805160206137758339815191528260000151108015610585575050602001516000805160206137758339815191521190565b600060648411156124e25750600061108b565b60006124fc60008051602061377583398151915287613618565b905060008051602061377583398151915261251786836134e4565b6125219190613618565b905060006000805160206137758339815191526003600080516020613775833981519152846000805160206137758339815191528687090908905061257560026000805160206137758339815191526134fc565b84108061259357508060008051602061377583398151915285860914155b8061259e5750848214155b156125ae5760009250505061108b565b5060019695505050505050565b60006000805160206137758339815191526125d6838261352f565b6105859190613618565b60006000805160206137758339815191528060038186818889090908818061260a5761260a613642565b84850914949350505050565b61261e612b90565b50604080516080810182527f1800deef121f1e76426a00665e5c4479674322d4f75edadd46debd5cd992f6ed8183019081527f198e9393920d483a7260bfb731fb5d25f1aa493335a9e71297e485b7aef312c26060830152815281518083019092527f12c85ea5db8c6deb4aab71808dcb408fe3d1e7690c43d37b4ce6cc0166fa7daa82527f090689d0585ff075ec9e99ad690c3395bc4b313370b38ef355acdadcd122975b60208381019190915281019190915290565b6000610585826000015183602001516127ba565b6000806126f5612bd4565b8e8152602081018e9052604081018d9052606081018c9052608081018b905260a081018a905260c0810189905260e081018890526101008101879052610120810186905261014081018590526101608101849052612751612bf3565b602081610180846008600019fa9250826127a45760405162461bcd60e51b815260206004820152601460248201527314185a5c9a5b99c818da1958dac819985a5b195960621b6044820152606401610655565b5115159f9e505050505050505050505050505050565b60006127c6838361288e565b156127d357506001610585565b60006127de836128c1565b9050600061287161284e604080518082018252600080825260209182015281518083019092527f2b149d40ceb8aaae81be18991be06ac3b5b4c5e559dbefa33267e6dc24a138e582527e9713b03af0fed4cd2cafadeed8fdf4a74fa084e52d1852e4a2bd0685c315d29082015290565b61286b6128648861285e8a6128c1565b90612977565b8590612a8a565b90612a8a565b805190915015801561288557506020810151155b95945050505050565b81516000901580156128a257506020830151155b80156128af575081516001145b8015610d515750506020015115919050565b6040805180820190915260008082526020820152600080516020613775833981519152600081602085015185510990506000828061290157612901613642565b838061290f5761290f613642565b848061291d5761291d613642565b602088015161292d60018861352f565b09875108848061293f5761293f613642565b60208801518851080990506040518060400160405280828152602001848061296957612969613642565b848508905295945050505050565b6040805180820190915260008082526020820152600060008051602061377583398151915290506000604051806040016040528083806129b9576129b9613642565b8651885109815260200183806129d1576129d1613642565b86602001518860200151099052905081806129ee576129ee613642565b82806129fc576129fc613642565b6020830151612a0c60018661352f565b0982510883528180612a2057612a20613642565b8280612a2e57612a2e613642565b6020830151835108612a40908461352f565b8380612a4e57612a4e613642565b8480612a5c57612a5c613642565b60208801518851088580612a7257612a72613642565b60208a01518a51080908602084015250909392505050565b6040805180820190915260008082526020820152815183516000805160206137758339815191529111612adb578080612ac557612ac5613642565b8351612ad1908361352f565b8551088252612b10565b808180612aea57612aea613642565b8551612af6908461352f565b855108612b03908361352f565b612b0d9190613618565b82525b8260200151846020015110612b4c578080612b2d57612b2d613642565b6020840151612b3c908361352f565b856020015108602083015261208f565b808180612b5b57612b5b613642565b6020860151612b6a908461352f565b856020015108612b7a908361352f565b612b849190613618565b60208301525092915050565b60408051608081018252600091810182815260608201929092529081908152602001612bcf604051806040016040528060008152602001600081525090565b905290565b604051806101800160405280600c906020820280368337509192915050565b60405180602001604052806001906020820280368337509192915050565b600082601f830112612c2257600080fd5b81356001600160401b03811115612c3b57612c3b613684565b604051612c52601f8301601f1916602001826135d1565b818152846020838601011115612c6757600080fd5b816020850160208301376000918101602001919091529392505050565b60008083601f840112612c9657600080fd5b5081356001600160401b03811115612cad57600080fd5b602083019150836020828501011115612cc557600080fd5b9250929050565b600060408284031215612cde57600080fd5b604051612cea8161358d565b80915082518152602083015160208201525092915050565b600060a08284031215610d3357600080fd5b600060208284031215612d2657600080fd5b8135610d518161373f565b600060208284031215612d4357600080fd5b8151610d518161373f565b600060208284031215612d6057600080fd5b5035919050565b60008060408385031215612d7a57600080fd5b823591506020830135612d8c8161373f565b809150509250929050565b600080600060608486031215612dac57600080fd5b833592506020840135612dbe8161373f565b915060408401356001600160401b03811115612dd957600080fd5b612de586828701612c11565b9150509250925092565b60008060408385031215612e0257600080fd5b50508035926020909101359150565b600060208284031215612e2357600080fd5b81356001600160e01b031981168114610d5157600080fd5b60008060408385031215612e4e57600080fd5b8235612e598161373f565b915060208301356001600160401b03811115612e7457600080fd5b612e8085828601612c11565b9150509250929050565b60008060208385031215612e9d57600080fd5b82356001600160401b03811115612eb357600080fd5b612ebf85828601612c84565b90969095509350505050565b600080600060408486031215612ee057600080fd5b83356001600160401b03811115612ef657600080fd5b612f0286828701612c84565b9094509250506020840135612f168161373f565b809150509250925092565b6000806000806000806101008789031215612f3b57600080fd5b86356001600160401b0380821115612f5257600080fd5b612f5e8a838b01612c84565b9098509650602089013595506040890135915080821115612f7e57600080fd5b818901915089601f830112612f9257600080fd5b813581811115612fa157600080fd5b8a60208260051b8501011115612fb657600080fd5b602083019550809450505050612fcf8860608901612d02565b90509295509295509295565b600060208284031215612fed57600080fd5b81356001600160401b0381111561300357600080fd5b61108b84828501612c11565b6000806040838503121561302257600080fd5b82356001600160401b0381111561303857600080fd5b61304485828601612c11565b9250506020830135612d8c8161373f565b60006080828403121561306757600080fd5b6040516130738161358d565b61307d8484612ccc565b815261308c8460408501612ccc565b60208201529392505050565b6000602082840312156130aa57600080fd5b81356001600160401b03808211156130c157600080fd5b9083019060a082860312156130d557600080fd5b6040516130e1816135b2565b823581526020830135602082015260408301356130fd8161373f565b604082015260608301356131108161373f565b606082015260808301358281111561312757600080fd5b61313387828601612c11565b60808301525095945050505050565b6000815180845261315a816020860160208601613546565b601f01601f19169290920160200192915050565b85815284602082015283604082015282606082015260008251613198816080850160208701613546565b919091016080019695505050505050565b600084516131bb818460208901613546565b8201838582376000930192835250909392505050565b8183823760009101908152919050565b600082516131f3818460208701613546565b9190910192915050565b7f416363657373436f6e74726f6c3a206163636f756e7420000000000000000000815260008351613235816017850160208801613546565b7001034b99036b4b9b9b4b733903937b6329607d1b6017918401918201528351613266816028840160208801613546565b01602801949350505050565b6001600160a01b038316815260406020820181905260009061108b90830184613142565b8481526001600160a01b03841660208201526060604082018190528101829052818360808301376000818301608090810191909152601f909201601f191601019392505050565b602081526000610d516020830184613142565b6020808252818101527f434841494e5f434f4e4e4543544f525f524f4c45206973207265717569726564604082015260600190565b60208082526029908201527f45585452415f434f4e54524143545f5245474953545241525f524f4c45206973604082015268081c995c5d5a5c995960ba1b606082015260800190565b6020808252602e908201527f496e697469616c697a61626c653a20636f6e747261637420697320616c72656160408201526d191e481a5b9a5d1a585b1a5e995960921b606082015260800190565b60208082526024908201527f53636861696e20686173682063616e206e6f7420626520657175616c204d61696040820152631b9b995d60e21b606082015260800190565b60208082526024908201527f44657374696e6174696f6e20636861696e206973206e6f7420696e697469616c6040820152631a5e995960e21b606082015260800190565b60208082526024908201527f457874726120636f6e747261637420697320616c726561647920726567697374604082015263195c995960e21b606082015260800190565b6000808335601e1984360301811261349f57600080fd5b8301803591506001600160401b038211156134b957600080fd5b602001915036819003821315612cc557600080fd5b60008235605e198336030181126131f357600080fd5b600082198211156134f7576134f761362c565b500190565b60008261350b5761350b613642565b500490565b600081600019048311821515161561352a5761352a61362c565b500290565b6000828210156135415761354161362c565b500390565b60005b83811015613561578181015183820152602001613549565b83811115613570576000848401525b50505050565b6000816135855761358561362c565b506000190190565b604081018181106001600160401b03821117156135ac576135ac613684565b60405250565b60a081018181106001600160401b03821117156135ac576135ac613684565b601f8201601f191681016001600160401b03811182821017156135f6576135f6613684565b6040525050565b60006000198214156136115761361161362c565b5060010190565b60008261362757613627613642565b500690565b634e487b7160e01b600052601160045260246000fd5b634e487b7160e01b600052601260045260246000fd5b634e487b7160e01b600052603160045260246000fd5b634e487b7160e01b600052603260045260246000fd5b634e487b7160e01b600052604160045260246000fd5b600060033d11156136b35760046000803e5060005160e01c5b90565b600060443d10156136c45790565b6040516003193d81016004833e81513d6001600160401b0381602484011181841117156136f357505050505090565b828501915081518181111561370b5750505050505090565b843d87010160208285010111156137255750505050505090565b613734602082860101876135d1565b509095945050505050565b6001600160a01b038116811461190557600080fdfe6155b5aac15ce9aa193c0527a6f43be0a36a7e2e7496c2b615c0e5f92284277330644e72e131a029b85045b68181585d97816a916871ca8d3c208c16d87cfd47992e0e3e7050db88ec37ec33505f46a9813ea5551fe17ef58dc201344bcbaf932785f35fe7d8743aa971942d8474737bb31895d396eff2cc688a481e0221e191a26469706673582212208b50bfc9b00cf4602f33d14d93126150fb10881d15fbf6447bb2c5caee85d81964736f6c63430008060033",
  "linkReferences": {},
  "deployedLinkReferences": {}
}