{
  "_format": "hh-sol-artifact-1",
  "contractName": "TokenManagerERC20",
  "sourceName": "contracts/schain/TokenManagers/TokenManagerERC20.sol",
  "abi": [
    {
      "anonymous": false,
      "inputs": [
        {
          "indexed": false,
          "internalType": "address",
          "name": "oldValue",
          "type": "address"
        },
        {
          "indexed": false,
          "internalType": "address",
          "name": "newValue",
          "type": "address"
        }
      ],
      "name": "DepositBoxWasChanged",
      "type": "event"
    },
    {
      "anonymous": false,
      "inputs": [
        {
          "indexed": true,
          "internalType": "address",
          "name": "erc20OnMainnet",
          "type": "address"
        },
        {
          "indexed": true,
          "internalType": "address",
          "name": "erc20OnSchain",
          "type": "address"
        }
      ],
      "name": "ERC20TokenAdded",
      "type": "event"
    },
    {
      "anonymous": false,
      "inputs": [
        {
          "indexed": true,
          "internalType": "address",
          "name": "erc20OnMainnet",
          "type": "address"
        },
        {
          "indexed": true,
          "internalType": "address",
          "name": "erc20OnSchain",
          "type": "address"
        }
      ],
      "name": "ERC20TokenCreated",
      "type": "event"
    },
    {
      "anonymous": false,
      "inputs": [
        {
          "indexed": true,
          "internalType": "address",
          "name": "erc20OnMainnet",
          "type": "address"
        },
        {
          "indexed": true,
          "internalType": "address",
          "name": "erc20OnSchain",
          "type": "address"
        },
        {
          "indexed": false,
          "internalType": "uint256",
          "name": "amount",
          "type": "uint256"
        }
      ],
      "name": "ERC20TokenReceived",
      "type": "event"
    },
    {
      "anonymous": false,
      "inputs": [
        {
          "indexed": true,
          "internalType": "bytes32",
          "name": "role",
          "type": "bytes32"
        },
        {
          "indexed": true,
          "internalType": "bytes32",
          "name": "previousAdminRole",
          "type": "bytes32"
        },
        {
          "indexed": true,
          "internalType": "bytes32",
          "name": "newAdminRole",
          "type": "bytes32"
        }
      ],
      "name": "RoleAdminChanged",
      "type": "event"
    },
    {
      "anonymous": false,
      "inputs": [
        {
          "indexed": true,
          "internalType": "bytes32",
          "name": "role",
          "type": "bytes32"
        },
        {
          "indexed": true,
          "internalType": "address",
          "name": "account",
          "type": "address"
        },
        {
          "indexed": true,
          "internalType": "address",
          "name": "sender",
          "type": "address"
        }
      ],
      "name": "RoleGranted",
      "type": "event"
    },
    {
      "anonymous": false,
      "inputs": [
        {
          "indexed": true,
          "internalType": "bytes32",
          "name": "role",
          "type": "bytes32"
        },
        {
          "indexed": true,
          "internalType": "address",
          "name": "account",
          "type": "address"
        },
        {
          "indexed": true,
          "internalType": "address",
          "name": "sender",
          "type": "address"
        }
      ],
      "name": "RoleRevoked",
      "type": "event"
    },
    {
      "inputs": [],
      "name": "AUTOMATIC_DEPLOY_ROLE",
      "outputs": [
        {
          "internalType": "bytes32",
          "name": "",
          "type": "bytes32"
        }
      ],
      "stateMutability": "view",
      "type": "function"
    },
    {
      "inputs": [],
      "name": "DEFAULT_ADMIN_ROLE",
      "outputs": [
        {
          "internalType": "bytes32",
          "name": "",
          "type": "bytes32"
        }
      ],
      "stateMutability": "view",
      "type": "function"
    },
    {
      "inputs": [],
      "name": "MAINNET_HASH",
      "outputs": [
        {
          "internalType": "bytes32",
          "name": "",
          "type": "bytes32"
        }
      ],
      "stateMutability": "view",
      "type": "function"
    },
    {
      "inputs": [],
      "name": "MAINNET_NAME",
      "outputs": [
        {
          "internalType": "string",
          "name": "",
          "type": "string"
        }
      ],
      "stateMutability": "view",
      "type": "function"
    },
    {
      "inputs": [],
      "name": "TOKEN_REGISTRAR_ROLE",
      "outputs": [
        {
          "internalType": "bytes32",
          "name": "",
          "type": "bytes32"
        }
      ],
      "stateMutability": "view",
      "type": "function"
    },
    {
      "inputs": [
        {
          "internalType": "address",
          "name": "erc20OnMainnet",
          "type": "address"
        },
        {
          "internalType": "contract ERC20OnChain",
          "name": "erc20OnSchain",
          "type": "address"
        }
      ],
      "name": "addERC20TokenByOwner",
      "outputs": [],
      "stateMutability": "nonpayable",
      "type": "function"
    },
    {
      "inputs": [
        {
          "internalType": "string",
          "name": "schainName",
          "type": "string"
        },
        {
          "internalType": "address",
          "name": "newTokenManager",
          "type": "address"
        }
      ],
      "name": "addTokenManager",
      "outputs": [],
      "stateMutability": "nonpayable",
      "type": "function"
    },
    {
      "inputs": [
        {
          "internalType": "contract ERC20OnChain",
          "name": "",
          "type": "address"
        }
      ],
      "name": "addedClones",
      "outputs": [
        {
          "internalType": "bool",
          "name": "",
          "type": "bool"
        }
      ],
      "stateMutability": "view",
      "type": "function"
    },
    {
      "inputs": [],
      "name": "automaticDeploy",
      "outputs": [
        {
          "internalType": "bool",
          "name": "",
          "type": "bool"
        }
      ],
      "stateMutability": "view",
      "type": "function"
    },
    {
      "inputs": [
        {
          "internalType": "address",
          "name": "newDepositBox",
          "type": "address"
        }
      ],
      "name": "changeDepositBoxAddress",
      "outputs": [],
      "stateMutability": "nonpayable",
      "type": "function"
    },
    {
      "inputs": [
        {
          "internalType": "address",
          "name": "",
          "type": "address"
        }
      ],
      "name": "clonesErc20",
      "outputs": [
        {
          "internalType": "contract ERC20OnChain",
          "name": "",
          "type": "address"
        }
      ],
      "stateMutability": "view",
      "type": "function"
    },
    {
      "inputs": [],
      "name": "communityLocker",
      "outputs": [
        {
          "internalType": "contract CommunityLocker",
          "name": "",
          "type": "address"
        }
      ],
      "stateMutability": "view",
      "type": "function"
    },
    {
      "inputs": [],
      "name": "depositBox",
      "outputs": [
        {
          "internalType": "address",
          "name": "",
          "type": "address"
        }
      ],
      "stateMutability": "view",
      "type": "function"
    },
    {
      "inputs": [],
      "name": "disableAutomaticDeploy",
      "outputs": [],
      "stateMutability": "nonpayable",
      "type": "function"
    },
    {
      "inputs": [],
      "name": "enableAutomaticDeploy",
      "outputs": [],
      "stateMutability": "nonpayable",
      "type": "function"
    },
    {
      "inputs": [
        {
          "internalType": "address",
          "name": "contractOnMainnet",
          "type": "address"
        },
        {
          "internalType": "uint256",
          "name": "amount",
          "type": "uint256"
        }
      ],
      "name": "exitToMainERC20",
      "outputs": [],
      "stateMutability": "nonpayable",
      "type": "function"
    },
    {
      "inputs": [
        {
          "internalType": "bytes32",
          "name": "role",
          "type": "bytes32"
        }
      ],
      "name": "getRoleAdmin",
      "outputs": [
        {
          "internalType": "bytes32",
          "name": "",
          "type": "bytes32"
        }
      ],
      "stateMutability": "view",
      "type": "function"
    },
    {
      "inputs": [
        {
          "internalType": "bytes32",
          "name": "role",
          "type": "bytes32"
        },
        {
          "internalType": "uint256",
          "name": "index",
          "type": "uint256"
        }
      ],
      "name": "getRoleMember",
      "outputs": [
        {
          "internalType": "address",
          "name": "",
          "type": "address"
        }
      ],
      "stateMutability": "view",
      "type": "function"
    },
    {
      "inputs": [
        {
          "internalType": "bytes32",
          "name": "role",
          "type": "bytes32"
        }
      ],
      "name": "getRoleMemberCount",
      "outputs": [
        {
          "internalType": "uint256",
          "name": "",
          "type": "uint256"
        }
      ],
      "stateMutability": "view",
      "type": "function"
    },
    {
      "inputs": [
        {
          "internalType": "bytes32",
          "name": "role",
          "type": "bytes32"
        },
        {
          "internalType": "address",
          "name": "account",
          "type": "address"
        }
      ],
      "name": "grantRole",
      "outputs": [],
      "stateMutability": "nonpayable",
      "type": "function"
    },
    {
      "inputs": [
        {
          "internalType": "bytes32",
          "name": "role",
          "type": "bytes32"
        },
        {
          "internalType": "address",
          "name": "account",
          "type": "address"
        }
      ],
      "name": "hasRole",
      "outputs": [
        {
          "internalType": "bool",
          "name": "",
          "type": "bool"
        }
      ],
      "stateMutability": "view",
      "type": "function"
    },
    {
      "inputs": [
        {
          "internalType": "string",
          "name": "schainName",
          "type": "string"
        }
      ],
      "name": "hasTokenManager",
      "outputs": [
        {
          "internalType": "bool",
          "name": "",
          "type": "bool"
        }
      ],
      "stateMutability": "view",
      "type": "function"
    },
    {
      "inputs": [
        {
          "internalType": "string",
          "name": "newChainName",
          "type": "string"
        },
        {
          "internalType": "contract MessageProxyForSchain",
          "name": "newMessageProxy",
          "type": "address"
        },
        {
          "internalType": "contract TokenManagerLinker",
          "name": "newIMALinker",
          "type": "address"
        },
        {
          "internalType": "contract CommunityLocker",
          "name": "newCommunityLocker",
          "type": "address"
        },
        {
          "internalType": "address",
          "name": "newDepositBox",
          "type": "address"
        }
      ],
      "name": "initialize",
      "outputs": [],
      "stateMutability": "nonpayable",
      "type": "function"
    },
    {
      "inputs": [
        {
          "internalType": "string",
          "name": "newSchainName",
          "type": "string"
        },
        {
          "internalType": "contract MessageProxyForSchain",
          "name": "newMessageProxy",
          "type": "address"
        },
        {
          "internalType": "contract TokenManagerLinker",
          "name": "newIMALinker",
          "type": "address"
        },
        {
          "internalType": "contract CommunityLocker",
          "name": "newCommunityLocker",
          "type": "address"
        },
        {
          "internalType": "address",
          "name": "newDepositBox",
          "type": "address"
        }
      ],
      "name": "initializeTokenManager",
      "outputs": [],
      "stateMutability": "nonpayable",
      "type": "function"
    },
    {
      "inputs": [],
      "name": "messageProxy",
      "outputs": [
        {
          "internalType": "contract MessageProxyForSchain",
          "name": "",
          "type": "address"
        }
      ],
      "stateMutability": "view",
      "type": "function"
    },
    {
      "inputs": [
        {
          "internalType": "bytes32",
          "name": "fromChainHash",
          "type": "bytes32"
        },
        {
          "internalType": "address",
          "name": "sender",
          "type": "address"
        },
        {
          "internalType": "bytes",
          "name": "data",
          "type": "bytes"
        }
      ],
      "name": "postMessage",
      "outputs": [
        {
          "internalType": "address",
          "name": "",
          "type": "address"
        }
      ],
      "stateMutability": "nonpayable",
      "type": "function"
    },
    {
      "inputs": [
        {
          "internalType": "string",
          "name": "schainName",
          "type": "string"
        }
      ],
      "name": "removeTokenManager",
      "outputs": [],
      "stateMutability": "nonpayable",
      "type": "function"
    },
    {
      "inputs": [
        {
          "internalType": "bytes32",
          "name": "role",
          "type": "bytes32"
        },
        {
          "internalType": "address",
          "name": "account",
          "type": "address"
        }
      ],
      "name": "renounceRole",
      "outputs": [],
      "stateMutability": "nonpayable",
      "type": "function"
    },
    {
      "inputs": [
        {
          "internalType": "bytes32",
          "name": "role",
          "type": "bytes32"
        },
        {
          "internalType": "address",
          "name": "account",
          "type": "address"
        }
      ],
      "name": "revokeRole",
      "outputs": [],
      "stateMutability": "nonpayable",
      "type": "function"
    },
    {
      "inputs": [],
      "name": "schainHash",
      "outputs": [
        {
          "internalType": "bytes32",
          "name": "",
          "type": "bytes32"
        }
      ],
      "stateMutability": "view",
      "type": "function"
    },
    {
      "inputs": [
        {
          "internalType": "bytes4",
          "name": "interfaceId",
          "type": "bytes4"
        }
      ],
      "name": "supportsInterface",
      "outputs": [
        {
          "internalType": "bool",
          "name": "",
          "type": "bool"
        }
      ],
      "stateMutability": "view",
      "type": "function"
    },
    {
      "inputs": [],
      "name": "tokenManagerLinker",
      "outputs": [
        {
          "internalType": "contract TokenManagerLinker",
          "name": "",
          "type": "address"
        }
      ],
      "stateMutability": "view",
      "type": "function"
    },
    {
      "inputs": [
        {
          "internalType": "bytes32",
          "name": "",
          "type": "bytes32"
        }
      ],
      "name": "tokenManagers",
      "outputs": [
        {
          "internalType": "address",
          "name": "",
          "type": "address"
        }
      ],
      "stateMutability": "view",
      "type": "function"
    },
    {
      "inputs": [
        {
          "internalType": "contract IERC20Upgradeable",
          "name": "",
          "type": "address"
        }
      ],
      "name": "totalSupplyOnMainnet",
      "outputs": [
        {
          "internalType": "uint256",
          "name": "",
          "type": "uint256"
        }
      ],
      "stateMutability": "view",
      "type": "function"
    },
    {
      "inputs": [
        {
          "internalType": "string",
          "name": "targetSchainName",
          "type": "string"
        },
        {
          "internalType": "address",
          "name": "contractOnMainnet",
          "type": "address"
        },
        {
          "internalType": "uint256",
          "name": "amount",
          "type": "uint256"
        }
      ],
      "name": "transferToSchainERC20",
      "outputs": [],
      "stateMutability": "nonpayable",
      "type": "function"
    }
  ],
  "bytecode": "0x608060405234801561001057600080fd5b50615406806100206000396000f3fe60806040523480156200001157600080fd5b50600436106200023d5760003560e01c80636ce681d2116200013d578063b9581c5011620000bb578063cc5b715b1162000086578063cc5b715b146200054c578063d547741f1462000574578063dec2deb6146200058b578063edcc12b514620005a0578063f429e38314620005b757600080fd5b8063b9581c5014620004fd578063c0e312dc1462000507578063ca15c873146200051e578063cb703bff146200053557600080fd5b8063884cee5a1162000108578063884cee5a14620004895780639010d07c14620004a057806391d1485414620004b7578063a217fddf14620004ce578063aebaaca914620004d757600080fd5b80636ce681d214620004335780636d611286146200044a5780636d6c68e6146200045e57806385049506146200047257600080fd5b80632f2ff15d11620001cb5780633fa194ce11620001965780633fa194ce14620003a45780634d58c88914620003bb57806350f4428014620003d25780635573b8b6146200040857806368eb2022146200041c57600080fd5b80632f2ff15d146200035557806336568abe146200036c57806339927cf914620003835780633b690b6b146200039a57600080fd5b8063248a9ca3116200020c578063248a9ca314620002d657806328c5e182146200030b5780632d6eea0614620003155780632dc151de146200034157600080fd5b806301ffc9a71462000242578063029996b8146200026e5780630b885ac3146200027a5780630f1a8f741462000291575b600080fd5b620002596200025336600462002a1f565b620005da565b60405190151581526020015b60405180910390f35b6200027862000608565b005b620002786200028b36600462002b6f565b62000660565b620002bd620002a236600462002958565b60ce602052600090815260409020546001600160a01b031681565b6040516001600160a01b03909116815260200162000265565b620002fc620002e736600462002958565b60009081526065602052604090206001015490565b60405190815260200162000265565b620002fc62000676565b620002bd62000326366004620028a7565b60cf602052600090815260409020546001600160a01b031681565b60ca54620002bd906001600160a01b031681565b620002786200036636600462002972565b620006c1565b620002786200037d36600462002972565b620006ec565b620002596200039436600462002a69565b62000712565b620002fc60cc5481565b620002fc600080516020620053b183398151915281565b62000278620003cc366004620028c7565b6200076f565b620003f96040518060400160405280600781526020016613585a5b9b995d60ca1b81525081565b60405162000265919062002e90565b60c954620002bd906001600160a01b031681565b620002786200042d36600462002905565b62000a43565b620002786200044436600462002b6f565b62000b09565b60cd54620002bd906001600160a01b031681565b60cb54620002bd906001600160a01b031681565b620002786200048336600462002b0c565b62000cdf565b620002bd6200049a3660046200299a565b62000f0d565b620002bd620004b1366004620029fc565b62001100565b62000259620004c836600462002972565b62001121565b620002fc600081565b62000259620004e8366004620028a7565b60d16020526000908152604090205460ff1681565b620002786200114c565b620002786200051836600462002a69565b62001195565b620002fc6200052f36600462002958565b620012b3565b620002786200054636600462002aaf565b620012cc565b620002fc7ffda70c2cc66a36c14884ee85424961f51b1d92b4494751699b6d105b3bcbcba881565b620002786200058536600462002972565b62001453565b60cd546200025990600160a01b900460ff1681565b62000278620005b1366004620028a7565b6200145f565b620002fc620005c8366004620028a7565b60d06020526000908152604090205481565b60006001600160e01b03198216635a05180f60e01b148062000602575062000602826200157b565b92915050565b62000623600080516020620053b18339815191523362001121565b6200064b5760405162461bcd60e51b8152600401620006429062002ece565b60405180910390fd5b60cd805460ff60a01b1916600160a01b179055565b6200066f858585858562000b09565b5050505050565b6040518060400160405280600781526020016613585a5b9b995d60ca1b815250604051602001620006a8919062002dc4565b6040516020818303038152906040528051906020012081565b620006cd8282620015b2565b6000828152609760205260409020620006e79082620015dc565b505050565b620006f88282620015f3565b6000828152609760205260409020620006e7908262001671565b6000806001600160a01b031660ce600085856040516020016200073792919062002db4565b60408051808303601f19018152918152815160209283012083529082019290925201600020546001600160a01b031614159392505050565b6200079b7ffda70c2cc66a36c14884ee85424961f51b1d92b4494751699b6d105b3bcbcba83362001121565b620007e95760405162461bcd60e51b815260206004820181905260248201527f544f4b454e5f5245474953545241525f524f4c45206973207265717569726564604482015260640162000642565b6001600160a01b0381163b620008425760405162461bcd60e51b815260206004820152601f60248201527f476976656e2061646472657373206973206e6f74206120636f6e747261637400604482015260640162000642565b806001600160a01b03166318160ddd6040518163ffffffff1660e01b815260040160206040518083038186803b1580156200087c57600080fd5b505afa15801562000891573d6000803e3d6000fd5b505050506040513d601f19601f82011682018060405250810190620008b7919062002d6c565b15620009065760405162461bcd60e51b815260206004820152601760248201527f546f74616c537570706c79206973206e6f74207a65726f000000000000000000604482015260640162000642565b6001600160a01b03828116600090815260cf60205260409020541615620009695760405162461bcd60e51b8152602060048201526016602482015275436f756c64206e6f742072656c696e6b20636c6f6e6560501b604482015260640162000642565b6001600160a01b038116600090815260d1602052604090205460ff1615620009d45760405162461bcd60e51b815260206004820152601760248201527f436c6f6e652077617320616c7265616479206164646564000000000000000000604482015260640162000642565b6001600160a01b03828116600081815260cf6020908152604080832080546001600160a01b031916958716958617905584835260d1909152808220805460ff19166001179055517fc6e93524baaa4770b94da082aa0caeac9ba78c87f7edc7c3d2820f2e9fdf400a9190a35050565b60cb546040516311be333d60e11b81523360048201526001600160a01b039091169063237c667a90602401600060405180830381600087803b15801562000a8957600080fd5b505af115801562000a9e573d6000803e3d6000fd5b5050505062000b056040518060400160405280600781526020016613585a5b9b995d60ca1b81525060405160200162000ad8919062002dc4565b60408051601f19818403018152919052805160209091012060cd546001600160a01b031684338562001688565b5050565b600054610100900460ff168062000b23575060005460ff16155b62000b425760405162461bcd60e51b8152600401620006429062002f0f565b600054610100900460ff1615801562000b65576000805461ffff19166101011790555b6001600160a01b03821662000bbd5760405162461bcd60e51b815260206004820181905260248201527f4465706f736974426f7820616464726573732068617320746f20626520736574604482015260640162000642565b62000bc762001a41565b62000bd460003362001adb565b62000bef600080516020620053b18339815191523362001adb565b62000c1b7ffda70c2cc66a36c14884ee85424961f51b1d92b4494751699b6d105b3bcbcba83362001adb565b8560405160200162000c2e919062002dc4565b60408051601f19818403018152828252805160209182012060cc5560c980546001600160a01b038a81166001600160a01b03199283161790925560ca80548a841690831617905560cb805489841690831617905560cd8054928816929091168217905560008452908301527fc968af77923193016f61d74ba6827296db5e1f37ec4fab3ad1ef20e193395e59910160405180910390a1801562000cd7576000805461ff00191690555b505050505050565b83838080601f016020809104026020016040519081016040528093929190818152602001838380828437600092018290525060405133945090925062000d2b9150849060200162002dc4565b60408051601f1981840301815282825280516020918201208383018352600784526613585a5b9b995d60ca1b84830152915191935062000d6d92910162002dc4565b6040516020818303038152906040528051906020012081141562000ded5760405162461bcd60e51b815260206004820152603060248201527f546869732066756e6374696f6e206973206e6f7420666f72207472616e73666560448201526f1c9c9a5b99c81d1bc813585a5b9b995d60821b606482015260840162000642565b6001600160a01b03821662000e455760405162461bcd60e51b815260206004820152601a60248201527f496e636f72726563742072656365697665722061646472657373000000000000604482015260640162000642565b600081815260ce60205260409020546001600160a01b031662000eab5760405162461bcd60e51b815260206004820152601f60248201527f496e636f727265637420546f6b656e204d616e61676572206164647265737300604482015260640162000642565b6000878760405160200162000ec292919062002db4565b60408051601f198184030181529181528151602092830120600081815260ce90935291205490915062000f039082906001600160a01b031688338962001688565b5050505050505050565b60c9546000906001600160a01b0316331462000f6c5760405162461bcd60e51b815260206004820152601c60248201527f53656e646572206973206e6f742061204d65737361676550726f787900000000604482015260640162000642565b848460cc5482141580156200100057506040518060400160405280600781526020016613585a5b9b995d60ca1b81525060405160200162000fae919062002dc4565b60405160208183030381529060405280519060200120821462000fee57600082815260ce60205260409020546001600160a01b0382811691161462001000565b60cd546001600160a01b038281169116145b6200104e5760405162461bcd60e51b815260206004820152601b60248201527f526563656976657220636861696e20697320696e636f72726563740000000000604482015260640162000642565b60006200105c868662001ae7565b90506000600482600c811115620010775762001077620030ef565b1480620010985750600382600c811115620010965762001096620030ef565b145b15620010b257620010aa878762001b3b565b9050620010f4565b60405162461bcd60e51b815260206004820152601660248201527526b2b9b9b0b3b2aa3cb8329034b9903ab735b737bbb760511b604482015260640162000642565b98975050505050505050565b60008281526097602052604081206200111a908362001f29565b9392505050565b60009182526065602090815260408084206001600160a01b0393909316845291905290205460ff1690565b62001167600080516020620053b18339815191523362001121565b620011865760405162461bcd60e51b8152600401620006429062002ece565b60cd805460ff60a01b19169055565b60ca546001600160a01b0316331480620011b75750620011b760003362001121565b620011fd5760405162461bcd60e51b81526020600482015260156024820152742737ba1030baba3437b934bd32b21031b0b63632b960591b604482015260640162000642565b600082826040516020016200121492919062002db4565b60408051601f198184030181529181528151602092830120600081815260ce9093529120549091506001600160a01b0316620012935760405162461bcd60e51b815260206004820152601860248201527f546f6b656e204d616e61676572206973206e6f74207365740000000000000000604482015260640162000642565b600090815260ce6020526040902080546001600160a01b03191690555050565b6000818152609760205260408120620006029062001f37565b60ca546001600160a01b0316331480620012ee5750620012ee60003362001121565b620013345760405162461bcd60e51b81526020600482015260156024820152742737ba1030baba3437b934bd32b21031b0b63632b960591b604482015260640162000642565b600083836040516020016200134b92919062002db4565b60408051601f198184030181529181528151602092830120600081815260ce9093529120549091506001600160a01b031615620013cb5760405162461bcd60e51b815260206004820152601c60248201527f546f6b656e204d616e6167657220697320616c72656164792073657400000000604482015260640162000642565b6001600160a01b038216620014235760405162461bcd60e51b815260206004820152601f60248201527f496e636f727265637420546f6b656e204d616e61676572206164647265737300604482015260640162000642565b600090815260ce6020526040902080546001600160a01b0319166001600160a01b03929092169190911790555050565b620006f8828262001f42565b6200146c60003362001121565b620014ba5760405162461bcd60e51b815260206004820152601e60248201527f44454641554c545f41444d494e5f524f4c452069732072657175697265640000604482015260640162000642565b6001600160a01b038116620015125760405162461bcd60e51b815260206004820181905260248201527f4465706f736974426f7820616464726573732068617320746f20626520736574604482015260640162000642565b60cd54604080516001600160a01b03928316815291831660208301527fc968af77923193016f61d74ba6827296db5e1f37ec4fab3ad1ef20e193395e59910160405180910390a160cd80546001600160a01b0319166001600160a01b0392909216919091179055565b60006001600160e01b03198216637965db0b60e01b14806200060257506301ffc9a760e01b6001600160e01b031983161462000602565b600082815260656020526040902060010154620015d0813362001f6c565b620006e7838362001fdb565b60006200111a836001600160a01b03841662002065565b6001600160a01b0381163314620016655760405162461bcd60e51b815260206004820152602f60248201527f416363657373436f6e74726f6c3a2063616e206f6e6c792072656e6f756e636560448201526e103937b632b9903337b91039b2b63360891b606482015260840162000642565b62000b058282620020b7565b60006200111a836001600160a01b03841662002121565b6001600160a01b03838116600090815260cf602052604090205416803b620016f35760405162461bcd60e51b815260206004820152601860248201527f4e6f20746f6b656e20636c6f6e65206f6e2073636861696e0000000000000000604482015260640162000642565b6040516370a0823160e01b815233600482015282906001600160a01b038316906370a082319060240160206040518083038186803b1580156200173557600080fd5b505afa1580156200174a573d6000803e3d6000fd5b505050506040513d601f19601f8201168201806040525081019062001770919062002d6c565b1015620017b55760405162461bcd60e51b8152602060048201526012602482015271496e73756666696369656e742066756e647360701b604482015260640162000642565b604051636eb1769f60e11b815233600482015230602482015282906001600160a01b0383169063dd62ed3e9060440160206040518083038186803b158015620017fd57600080fd5b505afa15801562001812573d6000803e3d6000fd5b505050506040513d601f19601f8201168201806040525081019062001838919062002d6c565b1015620018995760405162461bcd60e51b815260206004820152602860248201527f5472616e73666572206973206e6f7420617070726f76656420627920746f6b6560448201526737103437b63232b960c11b606482015260840162000642565b6040516323b872dd60e01b8152336004820152306024820152604481018390526001600160a01b038216906323b872dd90606401602060405180830381600087803b158015620018e857600080fd5b505af1158015620018fd573d6000803e3d6000fd5b505050506040513d601f19601f8201168201806040525081019062001923919062002934565b620019675760405162461bcd60e51b8152602060048201526013602482015272151c985b9cd9995c881dd85cc819985a5b1959606a1b604482015260640162000642565b604051630852cd8d60e31b8152600481018390526001600160a01b038216906342966c6890602401600060405180830381600087803b158015620019aa57600080fd5b505af1158015620019bf573d6000803e3d6000fd5b505060c9546001600160a01b03169150639448920290508787620019e588888862002225565b6040518463ffffffff1660e01b815260040162001a059392919062002e5b565b600060405180830381600087803b15801562001a2057600080fd5b505af115801562001a35573d6000803e3d6000fd5b50505050505050505050565b600054610100900460ff168062001a5b575060005460ff16155b62001a7a5760405162461bcd60e51b8152600401620006429062002f0f565b600054610100900460ff1615801562001a9d576000805461ffff19166101011790555b62001aa762002286565b62001ab162002286565b62001abb62002286565b62001ac562002286565b801562001ad8576000805461ff00191690555b50565b620006cd8282620022f6565b60008062001af88385018562002958565b905062001b07602082620030b6565b62001b2d5762001b2462001b1e8483818862002fe6565b62001ae7565b91505062000602565b62001b248385018562002a4b565b60008062001b4a848462001ae7565b9050600080808080600386600c81111562001b695762001b69620030ef565b141562001bc757600062001b7e8a8a62002302565b8051604080820151602080840151606090940151948101516001600160a01b03808616600090815260cf9093529390912054919a5092985092965090945016915062001d389050565b600062001bd58a8a620023dd565b8051604080820151602080840151606090940151818601516001600160a01b03808716600090815260cf9094529490922054929b5093995092975091955016925090508162001d365760cd54600160a01b900460ff1662001c795760405162461bcd60e51b815260206004820152601c60248201527f4175746f6d61746963206465706c6f792069732064697361626c656400000000604482015260640162000642565b80604001516000015181604001516040015160405162001c9990620026e6565b62001ca692919062002ea5565b604051809103906000f08015801562001cc3573d6000803e3d6000fd5b506001600160a01b03868116600081815260cf6020908152604080832080546001600160a01b031916958716958617905584835260d1909152808220805460ff1916600117905551939550919290917fcdae5f6ddbda7847ad809fcd087e35946ef42729ff7ecdbcc81a03eb3a52ab2891a35b505b6001600160a01b038116600090815260d06020526040902054821462001d74576001600160a01b038116600090815260d0602052604090208290555b60008062001df7836001600160a01b03166318160ddd6040518163ffffffff1660e01b815260040160206040518083038186803b15801562001db557600080fd5b505afa15801562001dca573d6000803e3d6000fd5b505050506040513d601f19601f8201168201806040525081019062001df0919062002d6c565b86620024d4565b909250905081801562001e2257506001600160a01b038316600090815260d060205260409020548111155b62001e685760405162461bcd60e51b8152602060048201526015602482015274151bdd185b081cdd5c1c1b1e48195e18d959591959605a1b604482015260640162000642565b6040516340c10f1960e01b81526001600160a01b038881166004830152602482018790528416906340c10f1990604401600060405180830381600087803b15801562001eb357600080fd5b505af115801562001ec8573d6000803e3d6000fd5b50505050826001600160a01b0316866001600160a01b03167f3799680c99183658e109873f9f352e8f136e8ef04c1963b80064ff525c2d4d898760405162001f1291815260200190565b60405180910390a350949998505050505050505050565b60006200111a8383620024ff565b600062000602825490565b60008281526065602052604090206001015462001f60813362001f6c565b620006e78383620020b7565b62001f78828262001121565b62000b055762001f93816001600160a01b031660146200252c565b62001fa08360206200252c565b60405160200162001fb392919062002de2565b60408051601f198184030181529082905262461bcd60e51b8252620006429160040162002e90565b62001fe7828262001121565b62000b055760008281526065602090815260408083206001600160a01b03851684529091529020805460ff19166001179055620020213390565b6001600160a01b0316816001600160a01b0316837f2f8788117e7eff1d82e926ec794901d17c78024a50270940304540a733656f0d60405160405180910390a45050565b6000818152600183016020526040812054620020ae5750815460018181018455600084815260208082209093018490558454848252828601909352604090209190915562000602565b50600062000602565b620020c3828262001121565b1562000b055760008281526065602090815260408083206001600160a01b0385168085529252808320805460ff1916905551339285917ff6391f5c32d9c69d2a47ea670b442974b53935d1edc7fd64eb21e047a839171b9190a45050565b600081815260018301602052604081205480156200221a576000620021486001836200304f565b85549091506000906200215e906001906200304f565b9050818114620021ca5760008660000182815481106200218257620021826200311b565b9060005260206000200154905080876000018481548110620021a857620021a86200311b565b6000918252602080832090910192909255918252600188019052604090208390555b8554869080620021de57620021de62003105565b60019003818190600052602060002001600090559055856001016000868152602001908152602001600020600090556001935050505062000602565b600091505062000602565b6040805160a08101825260026080820190815281526001600160a01b0380861660208084019190915290851682840152606080830185905292516200226d9183910162002f5d565b6040516020818303038152906040529150509392505050565b600054610100900460ff1680620022a0575060005460ff16155b620022bf5760405162461bcd60e51b8152600401620006429062002f0f565b600054610100900460ff1615801562001ac5576000805461ffff1916610101179055801562001ad8576000805461ff001916905550565b62000b05828262001fdb565b620023426040805160e081018252600060c08201818152928201928352606082018190526080820181905260a08201529081908152602001600081525090565b600362002350848462001ae7565b600c811115620023645762002364620030ef565b14620023cf5760405162461bcd60e51b815260206004820152603360248201527f4d6573736167652074797065206973206e6f74204552433230207472616e7366604482015272657220616e6420746f74616c20737570706c7960681b606482015260840162000642565b6200111a8284018462002d10565b6200243a6040805161010081018252600060e0820181815260608084019182526080840183905260a0840183905260c084018390529083526020808401839052845180830186528281529081019290925281840152909182015290565b600462002448848462001ae7565b600c8111156200245c576200245c620030ef565b14620024c65760405162461bcd60e51b815260206004820152603260248201527f4d6573736167652074797065206973206e6f74204552433230207472616e73666044820152716572207769746820746f6b656e20696e666f60701b606482015260840162000642565b6200111a8284018462002c05565b60008083830184811015620024f1576000809250925050620024f8565b6001925090505b9250929050565b60008260000182815481106200251957620025196200311b565b9060005260206000200154905092915050565b606060006200253d8360026200302d565b6200254a90600262003012565b67ffffffffffffffff81111562002565576200256562003131565b6040519080825280601f01601f19166020018201604052801562002590576020820181803683370190505b509050600360fc1b81600081518110620025ae57620025ae6200311b565b60200101906001600160f81b031916908160001a905350600f60fb1b81600181518110620025e057620025e06200311b565b60200101906001600160f81b031916908160001a9053506000620026068460026200302d565b6200261390600162003012565b90505b600181111562002695576f181899199a1a9b1b9c1cb0b131b232b360811b85600f16601081106200264b576200264b6200311b565b1a60f81b8282815181106200266457620026646200311b565b60200101906001600160f81b031916908160001a90535060049490941c936200268d816200309c565b905062002616565b5083156200111a5760405162461bcd60e51b815260206004820181905260248201527f537472696e67733a20686578206c656e67746820696e73756666696369656e74604482015260640162000642565b612253806200315e83390190565b60008083601f8401126200270757600080fd5b50813567ffffffffffffffff8111156200272057600080fd5b602083019150836020828501011115620024f857600080fd5b8035600d81106200274957600080fd5b919050565b600082601f8301126200276057600080fd5b813567ffffffffffffffff808211156200277e576200277e62003131565b604051601f8301601f19908116603f01168101908282118183101715620027a957620027a962003131565b81604052838152866020858801011115620027c357600080fd5b836020870160208301376000602085830101528094505050505092915050565b60008183036080811215620027f757600080fd5b6040516080810167ffffffffffffffff82821081831117156200281e576200281e62003131565b8160405282945060208412156200283457600080fd5b60a083019350818410818511171562002851576200285162003131565b5082604052620028618562002739565b8152815260208401359150620028778262003147565b816020820152604084013591506200288f8262003147565b81604082015260608401356060820152505092915050565b600060208284031215620028ba57600080fd5b81356200111a8162003147565b60008060408385031215620028db57600080fd5b8235620028e88162003147565b91506020830135620028fa8162003147565b809150509250929050565b600080604083850312156200291957600080fd5b8235620029268162003147565b946020939093013593505050565b6000602082840312156200294757600080fd5b815180151581146200111a57600080fd5b6000602082840312156200296b57600080fd5b5035919050565b600080604083850312156200298657600080fd5b823591506020830135620028fa8162003147565b60008060008060608587031215620029b157600080fd5b843593506020850135620029c58162003147565b9250604085013567ffffffffffffffff811115620029e257600080fd5b620029f087828801620026f4565b95989497509550505050565b6000806040838503121562002a1057600080fd5b50508035926020909101359150565b60006020828403121562002a3257600080fd5b81356001600160e01b0319811681146200111a57600080fd5b60006020828403121562002a5e57600080fd5b6200111a8262002739565b6000806020838503121562002a7d57600080fd5b823567ffffffffffffffff81111562002a9557600080fd5b62002aa385828601620026f4565b90969095509350505050565b60008060006040848603121562002ac557600080fd5b833567ffffffffffffffff81111562002add57600080fd5b62002aeb86828701620026f4565b909450925050602084013562002b018162003147565b809150509250925092565b6000806000806060858703121562002b2357600080fd5b843567ffffffffffffffff81111562002b3b57600080fd5b62002b4987828801620026f4565b909550935050602085013562002b5f8162003147565b9396929550929360400135925050565b600080600080600060a0868803121562002b8857600080fd5b853567ffffffffffffffff81111562002ba057600080fd5b62002bae888289016200274e565b955050602086013562002bc18162003147565b9350604086013562002bd38162003147565b9250606086013562002be58162003147565b9150608086013562002bf78162003147565b809150509295509295909350565b60006020828403121562002c1857600080fd5b813567ffffffffffffffff8082111562002c3157600080fd5b9083019060c0828603121562002c4657600080fd5b62002c5062002fba565b62002c5c8684620027e3565b81526080830135602082015260a08301358281111562002c7b57600080fd5b92909201916060838703121562002c9157600080fd5b62002c9b62002fba565b83358381111562002cab57600080fd5b62002cb9888287016200274e565b825250602084013560ff8116811462002cd157600080fd5b602082015260408401358381111562002ce957600080fd5b62002cf7888287016200274e565b6040830152508060408301525080935050505092915050565b600060a0828403121562002d2357600080fd5b6040516040810181811067ffffffffffffffff8211171562002d495762002d4962003131565b60405262002d588484620027e3565b815260809290920135602083015250919050565b60006020828403121562002d7f57600080fd5b5051919050565b6000815180845262002da081602086016020860162003069565b601f01601f19169290920160200192915050565b8183823760009101908152919050565b6000825162002dd881846020870162003069565b9190910192915050565b7f416363657373436f6e74726f6c3a206163636f756e742000000000000000000081526000835162002e1c81601785016020880162003069565b7001034b99036b4b9b9b4b733903937b6329607d1b601791840191820152835162002e4f81602884016020880162003069565b01602801949350505050565b8381526001600160a01b038316602082015260606040820181905260009062002e879083018462002d86565b95945050505050565b6020815260006200111a602083018462002d86565b60408152600062002eba604083018562002d86565b828103602084015262002e87818562002d86565b60208082526021908201527f4155544f4d415449435f4445504c4f595f524f4c4520697320726571756972656040820152601960fa1b606082015260800190565b6020808252602e908201527f496e697469616c697a61626c653a20636f6e747261637420697320616c72656160408201526d191e481a5b9a5d1a585b1a5e995960921b606082015260800190565b8151516080820190600d811062002f8457634e487b7160e01b600052602160045260246000fd5b80835250602083015160018060a01b03808216602085015280604086015116604085015250506060830151606083015292915050565b6040516060810167ffffffffffffffff8111828210171562002fe05762002fe062003131565b60405290565b6000808585111562002ff757600080fd5b838611156200300557600080fd5b5050820193919092039150565b60008219821115620030285762003028620030d9565b500190565b60008160001904831182151516156200304a576200304a620030d9565b500290565b600082821015620030645762003064620030d9565b500390565b60005b83811015620030865781810151838201526020016200306c565b8381111562003096576000848401525b50505050565b600081620030ae57620030ae620030d9565b506000190190565b600082620030d457634e487b7160e01b600052601260045260246000fd5b500690565b634e487b7160e01b600052601160045260246000fd5b634e487b7160e01b600052602160045260246000fd5b634e487b7160e01b600052603160045260246000fd5b634e487b7160e01b600052603260045260246000fd5b634e487b7160e01b600052604160045260246000fd5b6001600160a01b038116811462001ad857600080fdfe60806040523480156200001157600080fd5b506040516200225338038062002253833981016040819052620000349162000812565b600054610100900460ff16806200004e575060005460ff16155b620000a65760405162461bcd60e51b815260206004820152602e60248201526000805160206200221383398151915260448201526d191e481a5b9a5d1a585b1a5e995960921b60648201526084015b60405180910390fd5b600054610100900460ff16158015620000c9576000805461ffff19166101011790555b620000de6200015c60201b620007cd1760201c565b620000f583836200022b60201b620008581760201c565b6200010a620002ea60201b620008d71760201c565b62000125600080516020620022338339815191528062000384565b620001406000805160206200223383398151915233620003d8565b801562000153576000805461ff00191690555b505050620008cf565b600054610100900460ff168062000176575060005460ff16155b620001ca5760405162461bcd60e51b815260206004820152602e60248201526000805160206200221383398151915260448201526d191e481a5b9a5d1a585b1a5e995960921b60648201526084016200009d565b600054610100900460ff16158015620001ed576000805461ffff19166101011790555b620001f762000416565b6200020162000416565b6200020b62000416565b6200021562000416565b801562000228576000805461ff00191690555b50565b600054610100900460ff168062000245575060005460ff16155b620002995760405162461bcd60e51b815260206004820152602e60248201526000805160206200221383398151915260448201526d191e481a5b9a5d1a585b1a5e995960921b60648201526084016200009d565b600054610100900460ff16158015620002bc576000805461ffff19166101011790555b620002c662000416565b620002d28383620004bb565b8015620002e5576000805461ff00191690555b505050565b600054610100900460ff168062000304575060005460ff16155b620003585760405162461bcd60e51b815260206004820152602e60248201526000805160206200221383398151915260448201526d191e481a5b9a5d1a585b1a5e995960921b60648201526084016200009d565b600054610100900460ff1615801562000201576000805461ffff19166101011790556200020b62000416565b600082815260656020526040902060010154819060405184907fbd79b86ffe0ab8e8776151514217cd7cacd52c909f66475c3af44e129f0b00ff90600090a460009182526065602052604090912060010155565b620003ef82826200058f60201b620009351760201c565b6000828152609760209081526040909120620002e59183906200093f6200059f821b17901c565b600054610100900460ff168062000430575060005460ff16155b620004845760405162461bcd60e51b815260206004820152602e60248201526000805160206200221383398151915260448201526d191e481a5b9a5d1a585b1a5e995960921b60648201526084016200009d565b600054610100900460ff1615801562000215576000805461ffff1916610101179055801562000228576000805461ff001916905550565b600054610100900460ff1680620004d5575060005460ff16155b620005295760405162461bcd60e51b815260206004820152602e60248201526000805160206200221383398151915260448201526d191e481a5b9a5d1a585b1a5e995960921b60648201526084016200009d565b600054610100900460ff161580156200054c576000805461ffff19166101011790555b8251620005619060cc906020860190620006b5565b508151620005779060cd906020850190620006b5565b508015620002e5576000805461ff0019169055505050565b6200059b8282620005bf565b5050565b6000620005b6836001600160a01b03841662000663565b90505b92915050565b60008281526065602090815260408083206001600160a01b038516845290915290205460ff166200059b5760008281526065602090815260408083206001600160a01b03851684529091529020805460ff191660011790556200061f3390565b6001600160a01b0316816001600160a01b0316837f2f8788117e7eff1d82e926ec794901d17c78024a50270940304540a733656f0d60405160405180910390a45050565b6000818152600183016020526040812054620006ac57508154600181810184556000848152602080822090930184905584548482528286019093526040902091909155620005b9565b506000620005b9565b828054620006c3906200087c565b90600052602060002090601f016020900481019282620006e7576000855562000732565b82601f106200070257805160ff191683800117855562000732565b8280016001018555821562000732579182015b828111156200073257825182559160200191906001019062000715565b506200074092915062000744565b5090565b5b8082111562000740576000815560010162000745565b600082601f8301126200076d57600080fd5b81516001600160401b03808211156200078a576200078a620008b9565b604051601f8301601f19908116603f01168101908282118183101715620007b557620007b5620008b9565b81604052838152602092508683858801011115620007d257600080fd5b600091505b83821015620007f65785820183015181830184015290820190620007d7565b83821115620008085760008385830101525b9695505050505050565b600080604083850312156200082657600080fd5b82516001600160401b03808211156200083e57600080fd5b6200084c868387016200075b565b935060208501519150808211156200086357600080fd5b5062000872858286016200075b565b9150509250929050565b600181811c908216806200089157607f821691505b60208210811415620008b357634e487b7160e01b600052602260045260246000fd5b50919050565b634e487b7160e01b600052604160045260246000fd5b61193480620008df6000396000f3fe608060405234801561001057600080fd5b50600436106101585760003560e01c806370a08231116100c3578063a457c2d71161007c578063a457c2d7146102ef578063a9059cbb14610302578063ca15c87314610315578063d539139314610328578063d547741f1461034f578063dd62ed3e1461036257600080fd5b806370a082311461026557806379cc67901461028e5780639010d07c146102a157806391d14854146102cc57806395d89b41146102df578063a217fddf146102e757600080fd5b80632f2ff15d116101155780632f2ff15d146101f5578063313ce5671461020a57806336568abe14610219578063395093511461022c57806340c10f191461023f57806342966c681461025257600080fd5b806301ffc9a71461015d57806306fdde0314610185578063095ea7b31461019a57806318160ddd146101ad57806323b872dd146101bf578063248a9ca3146101d2575b600080fd5b61017061016b3660046116ba565b61039b565b60405190151581526020015b60405180910390f35b61018d6103c6565b60405161017c9190611759565b6101706101a8366004611632565b610458565b60cb545b60405190815260200161017c565b6101706101cd3660046115f6565b61046e565b6101b16101e036600461165c565b60009081526065602052604090206001015490565b610208610203366004611675565b61051d565b005b6040516012815260200161017c565b610208610227366004611675565b610544565b61017061023a366004611632565b610566565b61020861024d366004611632565b6105a2565b61020861026036600461165c565b61061f565b6101b16102733660046115a8565b6001600160a01b0316600090815260c9602052604090205490565b61020861029c366004611632565b61062c565b6102b46102af366004611698565b6106ad565b6040516001600160a01b03909116815260200161017c565b6101706102da366004611675565b6106cc565b61018d6106f7565b6101b1600081565b6101706102fd366004611632565b610706565b610170610310366004611632565b61079f565b6101b161032336600461165c565b6107ac565b6101b17f9f2df0fed2c77648de5860a4cc508cd0818c85b8b8a1ab4ceeef8d981c8956a681565b61020861035d366004611675565b6107c3565b6101b16103703660046115c3565b6001600160a01b03918216600090815260ca6020908152604080832093909416825291909152205490565b60006001600160e01b03198216635a05180f60e01b14806103c057506103c082610954565b92915050565b606060cc80546103d59061186b565b80601f01602080910402602001604051908101604052809291908181526020018280546104019061186b565b801561044e5780601f106104235761010080835404028352916020019161044e565b820191906000526020600020905b81548152906001019060200180831161043157829003601f168201915b5050505050905090565b6000610465338484610989565b50600192915050565b600061047b848484610aad565b6001600160a01b038416600090815260ca60209081526040808320338452909152902054828110156105055760405162461bcd60e51b815260206004820152602860248201527f45524332303a207472616e7366657220616d6f756e74206578636565647320616044820152676c6c6f77616e636560c01b60648201526084015b60405180910390fd5b6105128533858403610989565b506001949350505050565b6105278282610c7d565b600082815260976020526040902061053f908261093f565b505050565b61054e8282610ca3565b600082815260976020526040902061053f9082610d1d565b33600081815260ca602090815260408083206001600160a01b0387168452909152812054909161046591859061059d9086906117da565b610989565b6105cc7f9f2df0fed2c77648de5860a4cc508cd0818c85b8b8a1ab4ceeef8d981c8956a6336106cc565b6106115760405162461bcd60e51b815260206004820152601660248201527529b2b73232b91034b9903737ba10309026b4b73a32b960511b60448201526064016104fc565b61061b8282610d32565b5050565b6106293382610e11565b50565b60006106388333610370565b9050818110156106965760405162461bcd60e51b8152602060048201526024808201527f45524332303a206275726e20616d6f756e74206578636565647320616c6c6f77604482015263616e636560e01b60648201526084016104fc565b6106a38333848403610989565b61053f8383610e11565b60008281526097602052604081206106c59083610f5f565b9392505050565b60009182526065602090815260408084206001600160a01b0393909316845291905290205460ff1690565b606060cd80546103d59061186b565b33600090815260ca602090815260408083206001600160a01b0386168452909152812054828110156107885760405162461bcd60e51b815260206004820152602560248201527f45524332303a2064656372656173656420616c6c6f77616e63652062656c6f77604482015264207a65726f60d81b60648201526084016104fc565b6107953385858403610989565b5060019392505050565b6000610465338484610aad565b60008181526097602052604081206103c090610f6b565b61054e8282610f75565b600054610100900460ff16806107e6575060005460ff16155b6108025760405162461bcd60e51b81526004016104fc9061178c565b600054610100900460ff16158015610824576000805461ffff19166101011790555b61082c610f9b565b610834610f9b565b61083c610f9b565b610844610f9b565b8015610629576000805461ff001916905550565b600054610100900460ff1680610871575060005460ff16155b61088d5760405162461bcd60e51b81526004016104fc9061178c565b600054610100900460ff161580156108af576000805461ffff19166101011790555b6108b7610f9b565b6108c18383611005565b801561053f576000805461ff0019169055505050565b600054610100900460ff16806108f0575060005460ff16155b61090c5760405162461bcd60e51b81526004016104fc9061178c565b600054610100900460ff16158015610834576000805461ffff191661010117905561083c610f9b565b61061b828261109a565b60006106c5836001600160a01b038416611120565b60006001600160e01b03198216637965db0b60e01b14806103c057506301ffc9a760e01b6001600160e01b03198316146103c0565b6001600160a01b0383166109eb5760405162461bcd60e51b8152602060048201526024808201527f45524332303a20617070726f76652066726f6d20746865207a65726f206164646044820152637265737360e01b60648201526084016104fc565b6001600160a01b038216610a4c5760405162461bcd60e51b815260206004820152602260248201527f45524332303a20617070726f766520746f20746865207a65726f206164647265604482015261737360f01b60648201526084016104fc565b6001600160a01b03838116600081815260ca602090815260408083209487168084529482529182902085905590518481527f8c5be1e5ebec7d5bd14f71427d1e84f3dd0314c0f7b2291e5b200ac8c7c3b925910160405180910390a3505050565b6001600160a01b038316610b115760405162461bcd60e51b815260206004820152602560248201527f45524332303a207472616e736665722066726f6d20746865207a65726f206164604482015264647265737360d81b60648201526084016104fc565b6001600160a01b038216610b735760405162461bcd60e51b815260206004820152602360248201527f45524332303a207472616e7366657220746f20746865207a65726f206164647260448201526265737360e81b60648201526084016104fc565b6001600160a01b038316600090815260c9602052604090205481811015610beb5760405162461bcd60e51b815260206004820152602660248201527f45524332303a207472616e7366657220616d6f756e7420657863656564732062604482015265616c616e636560d01b60648201526084016104fc565b6001600160a01b03808516600090815260c96020526040808220858503905591851681529081208054849290610c229084906117da565b92505081905550826001600160a01b0316846001600160a01b03167fddf252ad1be2c89b69c2b068fc378daa952ba7f163c4a11628f55a4df523b3ef84604051610c6e91815260200190565b60405180910390a35b50505050565b600082815260656020526040902060010154610c99813361116f565b61053f838361109a565b6001600160a01b0381163314610d135760405162461bcd60e51b815260206004820152602f60248201527f416363657373436f6e74726f6c3a2063616e206f6e6c792072656e6f756e636560448201526e103937b632b9903337b91039b2b63360891b60648201526084016104fc565b61061b82826111d3565b60006106c5836001600160a01b03841661123a565b6001600160a01b038216610d885760405162461bcd60e51b815260206004820152601f60248201527f45524332303a206d696e7420746f20746865207a65726f20616464726573730060448201526064016104fc565b8060cb6000828254610d9a91906117da565b90915550506001600160a01b038216600090815260c9602052604081208054839290610dc79084906117da565b90915550506040518181526001600160a01b038316906000907fddf252ad1be2c89b69c2b068fc378daa952ba7f163c4a11628f55a4df523b3ef9060200160405180910390a35050565b6001600160a01b038216610e715760405162461bcd60e51b815260206004820152602160248201527f45524332303a206275726e2066726f6d20746865207a65726f206164647265736044820152607360f81b60648201526084016104fc565b6001600160a01b038216600090815260c9602052604090205481811015610ee55760405162461bcd60e51b815260206004820152602260248201527f45524332303a206275726e20616d6f756e7420657863656564732062616c616e604482015261636560f01b60648201526084016104fc565b6001600160a01b038316600090815260c960205260408120838303905560cb8054849290610f14908490611811565b90915550506040518281526000906001600160a01b038516907fddf252ad1be2c89b69c2b068fc378daa952ba7f163c4a11628f55a4df523b3ef9060200160405180910390a3505050565b60006106c5838361132d565b60006103c0825490565b600082815260656020526040902060010154610f91813361116f565b61053f83836111d3565b600054610100900460ff1680610fb4575060005460ff16155b610fd05760405162461bcd60e51b81526004016104fc9061178c565b600054610100900460ff16158015610844576000805461ffff19166101011790558015610629576000805461ff001916905550565b600054610100900460ff168061101e575060005460ff16155b61103a5760405162461bcd60e51b81526004016104fc9061178c565b600054610100900460ff1615801561105c576000805461ffff19166101011790555b825161106f9060cc9060208601906114f3565b5081516110839060cd9060208501906114f3565b50801561053f576000805461ff0019169055505050565b6110a482826106cc565b61061b5760008281526065602090815260408083206001600160a01b03851684529091529020805460ff191660011790556110dc3390565b6001600160a01b0316816001600160a01b0316837f2f8788117e7eff1d82e926ec794901d17c78024a50270940304540a733656f0d60405160405180910390a45050565b6000818152600183016020526040812054611167575081546001818101845560008481526020808220909301849055845484825282860190935260409020919091556103c0565b5060006103c0565b61117982826106cc565b61061b57611191816001600160a01b03166014611357565b61119c836020611357565b6040516020016111ad9291906116e4565b60408051601f198184030181529082905262461bcd60e51b82526104fc91600401611759565b6111dd82826106cc565b1561061b5760008281526065602090815260408083206001600160a01b0385168085529252808320805460ff1916905551339285917ff6391f5c32d9c69d2a47ea670b442974b53935d1edc7fd64eb21e047a839171b9190a45050565b6000818152600183016020526040812054801561132357600061125e600183611811565b855490915060009061127290600190611811565b90508181146112d7576000866000018281548110611292576112926118d2565b90600052602060002001549050808760000184815481106112b5576112b56118d2565b6000918252602080832090910192909255918252600188019052604090208390555b85548690806112e8576112e86118bc565b6001900381819060005260206000200160009055905585600101600086815260200190815260200160002060009055600193505050506103c0565b60009150506103c0565b6000826000018281548110611344576113446118d2565b9060005260206000200154905092915050565b606060006113668360026117f2565b6113719060026117da565b67ffffffffffffffff811115611389576113896118e8565b6040519080825280601f01601f1916602001820160405280156113b3576020820181803683370190505b509050600360fc1b816000815181106113ce576113ce6118d2565b60200101906001600160f81b031916908160001a905350600f60fb1b816001815181106113fd576113fd6118d2565b60200101906001600160f81b031916908160001a90535060006114218460026117f2565b61142c9060016117da565b90505b60018111156114a4576f181899199a1a9b1b9c1cb0b131b232b360811b85600f1660108110611460576114606118d2565b1a60f81b828281518110611476576114766118d2565b60200101906001600160f81b031916908160001a90535060049490941c9361149d81611854565b905061142f565b5083156106c55760405162461bcd60e51b815260206004820181905260248201527f537472696e67733a20686578206c656e67746820696e73756666696369656e7460448201526064016104fc565b8280546114ff9061186b565b90600052602060002090601f0160209004810192826115215760008555611567565b82601f1061153a57805160ff1916838001178555611567565b82800160010185558215611567579182015b8281111561156757825182559160200191906001019061154c565b50611573929150611577565b5090565b5b808211156115735760008155600101611578565b80356001600160a01b03811681146115a357600080fd5b919050565b6000602082840312156115ba57600080fd5b6106c58261158c565b600080604083850312156115d657600080fd5b6115df8361158c565b91506115ed6020840161158c565b90509250929050565b60008060006060848603121561160b57600080fd5b6116148461158c565b92506116226020850161158c565b9150604084013590509250925092565b6000806040838503121561164557600080fd5b61164e8361158c565b946020939093013593505050565b60006020828403121561166e57600080fd5b5035919050565b6000806040838503121561168857600080fd5b823591506115ed6020840161158c565b600080604083850312156116ab57600080fd5b50508035926020909101359150565b6000602082840312156116cc57600080fd5b81356001600160e01b0319811681146106c557600080fd5b7f416363657373436f6e74726f6c3a206163636f756e742000000000000000000081526000835161171c816017850160208801611828565b7001034b99036b4b9b9b4b733903937b6329607d1b601791840191820152835161174d816028840160208801611828565b01602801949350505050565b6020815260008251806020840152611778816040850160208701611828565b601f01601f19169190910160400192915050565b6020808252602e908201527f496e697469616c697a61626c653a20636f6e747261637420697320616c72656160408201526d191e481a5b9a5d1a585b1a5e995960921b606082015260800190565b600082198211156117ed576117ed6118a6565b500190565b600081600019048311821515161561180c5761180c6118a6565b500290565b600082821015611823576118236118a6565b500390565b60005b8381101561184357818101518382015260200161182b565b83811115610c775750506000910152565b600081611863576118636118a6565b506000190190565b600181811c9082168061187f57607f821691505b602082108114156118a057634e487b7160e01b600052602260045260246000fd5b50919050565b634e487b7160e01b600052601160045260246000fd5b634e487b7160e01b600052603160045260246000fd5b634e487b7160e01b600052603260045260246000fd5b634e487b7160e01b600052604160045260246000fdfea26469706673582212201eeae2a1644ab41f8a126fec14713398102f4a59a65f6eadc93d86e1200776e764736f6c63430008060033496e697469616c697a61626c653a20636f6e747261637420697320616c7265619f2df0fed2c77648de5860a4cc508cd0818c85b8b8a1ab4ceeef8d981c8956a67164765a3c8bd2513bdfa0c90f1bee9606e920fbf2c9071f310263fbd818684ba2646970667358221220b83687ab169b94bc6628edf790ff59d45923be8ab97c7cec48f65934dc15e37864736f6c63430008060033",
  "linkReferences": {},
  "deployedLinkReferences": {}
}