{
  "_format": "hh-sol-artifact-1",
  "contractName": "ERC721OnChain",
  "sourceName": "contracts/schain/tokens/ERC721OnChain.sol",
  "abi": [
    {
      "inputs": [
        {
          "internalType": "string",
          "name": "contractName",
          "type": "string"
        },
        {
          "internalType": "string",
          "name": "contractSymbol",
          "type": "string"
        }
      ],
      "stateMutability": "nonpayable",
      "type": "constructor"
    },
    {
      "anonymous": false,
      "inputs": [
        {
          "indexed": true,
          "internalType": "address",
          "name": "owner",
          "type": "address"
        },
        {
          "indexed": true,
          "internalType": "address",
          "name": "approved",
          "type": "address"
        },
        {
          "indexed": true,
          "internalType": "uint256",
          "name": "tokenId",
          "type": "uint256"
        }
      ],
      "name": "Approval",
      "type": "event"
    },
    {
      "anonymous": false,
      "inputs": [
        {
          "indexed": true,
          "internalType": "address",
          "name": "owner",
          "type": "address"
        },
        {
          "indexed": true,
          "internalType": "address",
          "name": "operator",
          "type": "address"
        },
        {
          "indexed": false,
          "internalType": "bool",
          "name": "approved",
          "type": "bool"
        }
      ],
      "name": "ApprovalForAll",
      "type": "event"
    },
    {
      "anonymous": false,
      "inputs": [
        {
          "indexed": true,
          "internalType": "bytes32",
          "name": "role",
          "type": "bytes32"
        },
        {
          "indexed": true,
          "internalType": "bytes32",
          "name": "previousAdminRole",
          "type": "bytes32"
        },
        {
          "indexed": true,
          "internalType": "bytes32",
          "name": "newAdminRole",
          "type": "bytes32"
        }
      ],
      "name": "RoleAdminChanged",
      "type": "event"
    },
    {
      "anonymous": false,
      "inputs": [
        {
          "indexed": true,
          "internalType": "bytes32",
          "name": "role",
          "type": "bytes32"
        },
        {
          "indexed": true,
          "internalType": "address",
          "name": "account",
          "type": "address"
        },
        {
          "indexed": true,
          "internalType": "address",
          "name": "sender",
          "type": "address"
        }
      ],
      "name": "RoleGranted",
      "type": "event"
    },
    {
      "anonymous": false,
      "inputs": [
        {
          "indexed": true,
          "internalType": "bytes32",
          "name": "role",
          "type": "bytes32"
        },
        {
          "indexed": true,
          "internalType": "address",
          "name": "account",
          "type": "address"
        },
        {
          "indexed": true,
          "internalType": "address",
          "name": "sender",
          "type": "address"
        }
      ],
      "name": "RoleRevoked",
      "type": "event"
    },
    {
      "anonymous": false,
      "inputs": [
        {
          "indexed": true,
          "internalType": "address",
          "name": "from",
          "type": "address"
        },
        {
          "indexed": true,
          "internalType": "address",
          "name": "to",
          "type": "address"
        },
        {
          "indexed": true,
          "internalType": "uint256",
          "name": "tokenId",
          "type": "uint256"
        }
      ],
      "name": "Transfer",
      "type": "event"
    },
    {
      "inputs": [],
      "name": "DEFAULT_ADMIN_ROLE",
      "outputs": [
        {
          "internalType": "bytes32",
          "name": "",
          "type": "bytes32"
        }
      ],
      "stateMutability": "view",
      "type": "function"
    },
    {
      "inputs": [],
      "name": "MINTER_ROLE",
      "outputs": [
        {
          "internalType": "bytes32",
          "name": "",
          "type": "bytes32"
        }
      ],
      "stateMutability": "view",
      "type": "function"
    },
    {
      "inputs": [
        {
          "internalType": "address",
          "name": "to",
          "type": "address"
        },
        {
          "internalType": "uint256",
          "name": "tokenId",
          "type": "uint256"
        }
      ],
      "name": "approve",
      "outputs": [],
      "stateMutability": "nonpayable",
      "type": "function"
    },
    {
      "inputs": [
        {
          "internalType": "address",
          "name": "owner",
          "type": "address"
        }
      ],
      "name": "balanceOf",
      "outputs": [
        {
          "internalType": "uint256",
          "name": "",
          "type": "uint256"
        }
      ],
      "stateMutability": "view",
      "type": "function"
    },
    {
      "inputs": [
        {
          "internalType": "uint256",
          "name": "tokenId",
          "type": "uint256"
        }
      ],
      "name": "burn",
      "outputs": [],
      "stateMutability": "nonpayable",
      "type": "function"
    },
    {
      "inputs": [
        {
          "internalType": "uint256",
          "name": "tokenId",
          "type": "uint256"
        }
      ],
      "name": "getApproved",
      "outputs": [
        {
          "internalType": "address",
          "name": "",
          "type": "address"
        }
      ],
      "stateMutability": "view",
      "type": "function"
    },
    {
      "inputs": [
        {
          "internalType": "bytes32",
          "name": "role",
          "type": "bytes32"
        }
      ],
      "name": "getRoleAdmin",
      "outputs": [
        {
          "internalType": "bytes32",
          "name": "",
          "type": "bytes32"
        }
      ],
      "stateMutability": "view",
      "type": "function"
    },
    {
      "inputs": [
        {
          "internalType": "bytes32",
          "name": "role",
          "type": "bytes32"
        },
        {
          "internalType": "uint256",
          "name": "index",
          "type": "uint256"
        }
      ],
      "name": "getRoleMember",
      "outputs": [
        {
          "internalType": "address",
          "name": "",
          "type": "address"
        }
      ],
      "stateMutability": "view",
      "type": "function"
    },
    {
      "inputs": [
        {
          "internalType": "bytes32",
          "name": "role",
          "type": "bytes32"
        }
      ],
      "name": "getRoleMemberCount",
      "outputs": [
        {
          "internalType": "uint256",
          "name": "",
          "type": "uint256"
        }
      ],
      "stateMutability": "view",
      "type": "function"
    },
    {
      "inputs": [
        {
          "internalType": "bytes32",
          "name": "role",
          "type": "bytes32"
        },
        {
          "internalType": "address",
          "name": "account",
          "type": "address"
        }
      ],
      "name": "grantRole",
      "outputs": [],
      "stateMutability": "nonpayable",
      "type": "function"
    },
    {
      "inputs": [
        {
          "internalType": "bytes32",
          "name": "role",
          "type": "bytes32"
        },
        {
          "internalType": "address",
          "name": "account",
          "type": "address"
        }
      ],
      "name": "hasRole",
      "outputs": [
        {
          "internalType": "bool",
          "name": "",
          "type": "bool"
        }
      ],
      "stateMutability": "view",
      "type": "function"
    },
    {
      "inputs": [
        {
          "internalType": "address",
          "name": "owner",
          "type": "address"
        },
        {
          "internalType": "address",
          "name": "operator",
          "type": "address"
        }
      ],
      "name": "isApprovedForAll",
      "outputs": [
        {
          "internalType": "bool",
          "name": "",
          "type": "bool"
        }
      ],
      "stateMutability": "view",
      "type": "function"
    },
    {
      "inputs": [
        {
          "internalType": "address",
          "name": "account",
          "type": "address"
        },
        {
          "internalType": "uint256",
          "name": "tokenId",
          "type": "uint256"
        }
      ],
      "name": "mint",
      "outputs": [],
      "stateMutability": "nonpayable",
      "type": "function"
    },
    {
      "inputs": [],
      "name": "name",
      "outputs": [
        {
          "internalType": "string",
          "name": "",
          "type": "string"
        }
      ],
      "stateMutability": "view",
      "type": "function"
    },
    {
      "inputs": [
        {
          "internalType": "uint256",
          "name": "tokenId",
          "type": "uint256"
        }
      ],
      "name": "ownerOf",
      "outputs": [
        {
          "internalType": "address",
          "name": "",
          "type": "address"
        }
      ],
      "stateMutability": "view",
      "type": "function"
    },
    {
      "inputs": [
        {
          "internalType": "bytes32",
          "name": "role",
          "type": "bytes32"
        },
        {
          "internalType": "address",
          "name": "account",
          "type": "address"
        }
      ],
      "name": "renounceRole",
      "outputs": [],
      "stateMutability": "nonpayable",
      "type": "function"
    },
    {
      "inputs": [
        {
          "internalType": "bytes32",
          "name": "role",
          "type": "bytes32"
        },
        {
          "internalType": "address",
          "name": "account",
          "type": "address"
        }
      ],
      "name": "revokeRole",
      "outputs": [],
      "stateMutability": "nonpayable",
      "type": "function"
    },
    {
      "inputs": [
        {
          "internalType": "address",
          "name": "from",
          "type": "address"
        },
        {
          "internalType": "address",
          "name": "to",
          "type": "address"
        },
        {
          "internalType": "uint256",
          "name": "tokenId",
          "type": "uint256"
        }
      ],
      "name": "safeTransferFrom",
      "outputs": [],
      "stateMutability": "nonpayable",
      "type": "function"
    },
    {
      "inputs": [
        {
          "internalType": "address",
          "name": "from",
          "type": "address"
        },
        {
          "internalType": "address",
          "name": "to",
          "type": "address"
        },
        {
          "internalType": "uint256",
          "name": "tokenId",
          "type": "uint256"
        },
        {
          "internalType": "bytes",
          "name": "_data",
          "type": "bytes"
        }
      ],
      "name": "safeTransferFrom",
      "outputs": [],
      "stateMutability": "nonpayable",
      "type": "function"
    },
    {
      "inputs": [
        {
          "internalType": "address",
          "name": "operator",
          "type": "address"
        },
        {
          "internalType": "bool",
          "name": "approved",
          "type": "bool"
        }
      ],
      "name": "setApprovalForAll",
      "outputs": [],
      "stateMutability": "nonpayable",
      "type": "function"
    },
    {
      "inputs": [
        {
          "internalType": "uint256",
          "name": "tokenId",
          "type": "uint256"
        },
        {
          "internalType": "string",
          "name": "tokenUri",
          "type": "string"
        }
      ],
      "name": "setTokenURI",
      "outputs": [
        {
          "internalType": "bool",
          "name": "",
          "type": "bool"
        }
      ],
      "stateMutability": "nonpayable",
      "type": "function"
    },
    {
      "inputs": [
        {
          "internalType": "bytes4",
          "name": "interfaceId",
          "type": "bytes4"
        }
      ],
      "name": "supportsInterface",
      "outputs": [
        {
          "internalType": "bool",
          "name": "",
          "type": "bool"
        }
      ],
      "stateMutability": "view",
      "type": "function"
    },
    {
      "inputs": [],
      "name": "symbol",
      "outputs": [
        {
          "internalType": "string",
          "name": "",
          "type": "string"
        }
      ],
      "stateMutability": "view",
      "type": "function"
    },
    {
      "inputs": [
        {
          "internalType": "uint256",
          "name": "tokenId",
          "type": "uint256"
        }
      ],
      "name": "tokenURI",
      "outputs": [
        {
          "internalType": "string",
          "name": "",
          "type": "string"
        }
      ],
      "stateMutability": "view",
      "type": "function"
    },
    {
      "inputs": [
        {
          "internalType": "address",
          "name": "from",
          "type": "address"
        },
        {
          "internalType": "address",
          "name": "to",
          "type": "address"
        },
        {
          "internalType": "uint256",
          "name": "tokenId",
          "type": "uint256"
        }
      ],
      "name": "transferFrom",
      "outputs": [],
      "stateMutability": "nonpayable",
      "type": "function"
    }
  ],
  "bytecode": "0x60806040523480156200001157600080fd5b5060405162002e8538038062002e8583398101604081905262000034916200081c565b600054610100900460ff16806200004e575060005460ff16155b620000a65760405162461bcd60e51b815260206004820152602e602482015260008051602062002e4583398151915260448201526d191e481a5b9a5d1a585b1a5e995960921b60648201526084015b60405180910390fd5b600054610100900460ff16158015620000c9576000805461ffff19166101011790555b620000de6200015c60201b62000b061760201c565b620000f583836200022b60201b62000b911760201c565b6200010a620002f460201b62000c181760201c565b6200012560008051602062002e65833981519152806200038e565b6200014060008051602062002e6583398151915233620003e2565b801562000153576000805461ff00191690555b505050620008d9565b600054610100900460ff168062000176575060005460ff16155b620001ca5760405162461bcd60e51b815260206004820152602e602482015260008051602062002e4583398151915260448201526d191e481a5b9a5d1a585b1a5e995960921b60648201526084016200009d565b600054610100900460ff16158015620001ed576000805461ffff19166101011790555b620001f762000420565b6200020162000420565b6200020b62000420565b6200021562000420565b801562000228576000805461ff00191690555b50565b600054610100900460ff168062000245575060005460ff16155b620002995760405162461bcd60e51b815260206004820152602e602482015260008051602062002e4583398151915260448201526d191e481a5b9a5d1a585b1a5e995960921b60648201526084016200009d565b600054610100900460ff16158015620002bc576000805461ffff19166101011790555b620002c662000420565b620002d062000420565b620002dc8383620004c5565b8015620002ef576000805461ff00191690555b505050565b600054610100900460ff16806200030e575060005460ff16155b620003625760405162461bcd60e51b815260206004820152602e602482015260008051602062002e4583398151915260448201526d191e481a5b9a5d1a585b1a5e995960921b60648201526084016200009d565b600054610100900460ff16158015620001f7576000805461ffff19166101011790556200020162000420565b600082815260656020526040902060010154819060405184907fbd79b86ffe0ab8e8776151514217cd7cacd52c909f66475c3af44e129f0b00ff90600090a460009182526065602052604090912060010155565b620003f982826200059960201b62000c761760201c565b6000828152609760209081526040909120620002ef91839062000c80620005a9821b17901c565b600054610100900460ff16806200043a575060005460ff16155b6200048e5760405162461bcd60e51b815260206004820152602e602482015260008051602062002e4583398151915260448201526d191e481a5b9a5d1a585b1a5e995960921b60648201526084016200009d565b600054610100900460ff1615801562000215576000805461ffff1916610101179055801562000228576000805461ff001916905550565b600054610100900460ff1680620004df575060005460ff16155b620005335760405162461bcd60e51b815260206004820152602e602482015260008051602062002e4583398151915260448201526d191e481a5b9a5d1a585b1a5e995960921b60648201526084016200009d565b600054610100900460ff1615801562000556576000805461ffff19166101011790555b82516200056b9060c9906020860190620006bf565b508151620005819060ca906020850190620006bf565b508015620002ef576000805461ff0019169055505050565b620005a58282620005c9565b5050565b6000620005c0836001600160a01b0384166200066d565b90505b92915050565b60008281526065602090815260408083206001600160a01b038516845290915290205460ff16620005a55760008281526065602090815260408083206001600160a01b03851684529091529020805460ff19166001179055620006293390565b6001600160a01b0316816001600160a01b0316837f2f8788117e7eff1d82e926ec794901d17c78024a50270940304540a733656f0d60405160405180910390a45050565b6000818152600183016020526040812054620006b657508154600181810184556000848152602080822090930184905584548482528286019093526040902091909155620005c3565b506000620005c3565b828054620006cd9062000886565b90600052602060002090601f016020900481019282620006f157600085556200073c565b82601f106200070c57805160ff19168380011785556200073c565b828001600101855582156200073c579182015b828111156200073c5782518255916020019190600101906200071f565b506200074a9291506200074e565b5090565b5b808211156200074a57600081556001016200074f565b600082601f8301126200077757600080fd5b81516001600160401b0380821115620007945762000794620008c3565b604051601f8301601f19908116603f01168101908282118183101715620007bf57620007bf620008c3565b81604052838152602092508683858801011115620007dc57600080fd5b600091505b83821015620008005785820183015181830184015290820190620007e1565b83821115620008125760008385830101525b9695505050505050565b600080604083850312156200083057600080fd5b82516001600160401b03808211156200084857600080fd5b620008568683870162000765565b935060208501519150808211156200086d57600080fd5b506200087c8582860162000765565b9150509250929050565b600181811c908216806200089b57607f821691505b60208210811415620008bd57634e487b7160e01b600052602260045260246000fd5b50919050565b634e487b7160e01b600052604160045260246000fd5b61255c80620008e96000396000f3fe608060405234801561001057600080fd5b50600436106101735760003560e01c80636352211e116100de578063a22cb46511610097578063ca15c87311610071578063ca15c87314610340578063d539139314610353578063d547741f1461037a578063e985e9c51461038d57600080fd5b8063a22cb46514610307578063b88d4fde1461031a578063c87b56dd1461032d57600080fd5b80636352211e146102ab57806370a08231146102be5780639010d07c146102d157806391d14854146102e457806395d89b41146102f7578063a217fddf146102ff57600080fd5b8063248a9ca311610130578063248a9ca31461021b5780632f2ff15d1461024c57806336568abe1461025f57806340c10f191461027257806342842e0e1461028557806342966c681461029857600080fd5b806301ffc9a71461017857806306fdde03146101a0578063081812fc146101b5578063095ea7b3146101e0578063162094c4146101f557806323b872dd14610208575b600080fd5b61018b6101863660046120cc565b6103c9565b60405190151581526020015b60405180910390f35b6101a86103da565b604051610197919061228f565b6101c86101c336600461206e565b61046c565b6040516001600160a01b039091168152602001610197565b6101f36101ee366004612044565b6104f9565b005b61018b610203366004612106565b61060f565b6101f3610216366004611ef0565b6106fe565b61023e61022936600461206e565b60009081526065602052604090206001015490565b604051908152602001610197565b6101f361025a366004612087565b610730565b6101f361026d366004612087565b610752565b6101f3610280366004612044565b610774565b6101f3610293366004611ef0565b6107f1565b6101f36102a636600461206e565b61080c565b6101c86102b936600461206e565b610886565b61023e6102cc366004611ea2565b6108fd565b6101c86102df3660046120aa565b610984565b61018b6102f2366004612087565b6109a3565b6101a86109ce565b61023e600081565b6101f3610315366004612008565b6109dd565b6101f3610328366004611f2c565b610aa2565b6101a861033b36600461206e565b610ada565b61023e61034e36600461206e565b610ae5565b61023e7f9f2df0fed2c77648de5860a4cc508cd0818c85b8b8a1ab4ceeef8d981c8956a681565b6101f3610388366004612087565b610afc565b61018b61039b366004611ebd565b6001600160a01b03918216600090815260ce6020908152604080832093909416825291909152205460ff1690565b60006103d482610c95565b92915050565b606060c980546103e990612438565b80601f016020809104026020016040519081016040528092919081815260200182805461041590612438565b80156104625780601f1061043757610100808354040283529160200191610462565b820191906000526020600020905b81548152906001019060200180831161044557829003601f168201915b5050505050905090565b600061047782610cd5565b6104dd5760405162461bcd60e51b815260206004820152602c60248201527f4552433732313a20617070726f76656420717565727920666f72206e6f6e657860448201526b34b9ba32b73a103a37b5b2b760a11b60648201526084015b60405180910390fd5b50600090815260cd60205260409020546001600160a01b031690565b600061050482610886565b9050806001600160a01b0316836001600160a01b031614156105725760405162461bcd60e51b815260206004820152602160248201527f4552433732313a20617070726f76616c20746f2063757272656e74206f776e656044820152603960f91b60648201526084016104d4565b336001600160a01b038216148061058e575061058e813361039b565b6106005760405162461bcd60e51b815260206004820152603860248201527f4552433732313a20617070726f76652063616c6c6572206973206e6f74206f7760448201527f6e6572206e6f7220617070726f76656420666f7220616c6c000000000000000060648201526084016104d4565b61060a8383610cf2565b505050565b600061061a84610cd5565b61065e5760405162461bcd60e51b8152602060048201526015602482015274546f6b656e20646f6573206e6f742065786973747360581b60448201526064016104d4565b6106683385610d60565b6106b45760405162461bcd60e51b815260206004820152601c60248201527f53656e6465722063616e206e6f742073657420746f6b656e205552490000000060448201526064016104d4565b6106f48484848080601f016020809104026020016040519081016040528093929190818152602001838380828437600092019190915250610e4a92505050565b5060019392505050565b610709335b82610d60565b6107255760405162461bcd60e51b81526004016104d490612342565b61060a838383610ed6565b61073a8282611076565b600082815260976020526040902061060a9082610c80565b61075c828261109c565b600082815260976020526040902061060a9082611116565b61079e7f9f2df0fed2c77648de5860a4cc508cd0818c85b8b8a1ab4ceeef8d981c8956a6336109a3565b6107e35760405162461bcd60e51b815260206004820152601660248201527529b2b73232b91034b9903737ba10309026b4b73a32b960511b60448201526064016104d4565b6107ed828261112b565b5050565b61060a83838360405180602001604052806000815250610aa2565b61081533610703565b61087a5760405162461bcd60e51b815260206004820152603060248201527f4552433732314275726e61626c653a2063616c6c6572206973206e6f74206f7760448201526f1b995c881b9bdc88185c1c1c9bdd995960821b60648201526084016104d4565b6108838161125e565b50565b600081815260cb60205260408120546001600160a01b0316806103d45760405162461bcd60e51b815260206004820152602960248201527f4552433732313a206f776e657220717565727920666f72206e6f6e657869737460448201526832b73a103a37b5b2b760b91b60648201526084016104d4565b60006001600160a01b0382166109685760405162461bcd60e51b815260206004820152602a60248201527f4552433732313a2062616c616e636520717565727920666f7220746865207a65604482015269726f206164647265737360b01b60648201526084016104d4565b506001600160a01b0316600090815260cc602052604090205490565b600082815260976020526040812061099c9083611267565b9392505050565b60009182526065602090815260408084206001600160a01b0393909316845291905290205460ff1690565b606060ca80546103e990612438565b6001600160a01b038216331415610a365760405162461bcd60e51b815260206004820152601960248201527f4552433732313a20617070726f766520746f2063616c6c65720000000000000060448201526064016104d4565b33600081815260ce602090815260408083206001600160a01b03871680855290835292819020805460ff191686151590811790915590519081529192917f17307eab39ab6107e8899845ad3d59bd9653f200f220920489ca2b5937696c31910160405180910390a35050565b610aac3383610d60565b610ac85760405162461bcd60e51b81526004016104d490612342565b610ad484848484611273565b50505050565b60606103d4826112a6565b60008181526097602052604081206103d490611416565b61075c8282611420565b600054610100900460ff1680610b1f575060005460ff16155b610b3b5760405162461bcd60e51b81526004016104d4906122f4565b600054610100900460ff16158015610b5d576000805461ffff19166101011790555b610b65611446565b610b6d611446565b610b75611446565b610b7d611446565b8015610883576000805461ff001916905550565b600054610100900460ff1680610baa575060005460ff16155b610bc65760405162461bcd60e51b81526004016104d4906122f4565b600054610100900460ff16158015610be8576000805461ffff19166101011790555b610bf0611446565b610bf8611446565b610c0283836114b0565b801561060a576000805461ff0019169055505050565b600054610100900460ff1680610c31575060005460ff16155b610c4d5760405162461bcd60e51b81526004016104d4906122f4565b600054610100900460ff16158015610b65576000805461ffff1916610101179055610b6d611446565b6107ed8282611545565b600061099c836001600160a01b0384166115cb565b60006001600160e01b031982166380ac58cd60e01b1480610cc657506001600160e01b03198216635b5e139f60e01b145b806103d457506103d48261161a565b600090815260cb60205260409020546001600160a01b0316151590565b600081815260cd6020526040902080546001600160a01b0319166001600160a01b0384169081179091558190610d2782610886565b6001600160a01b03167f8c5be1e5ebec7d5bd14f71427d1e84f3dd0314c0f7b2291e5b200ac8c7c3b92560405160405180910390a45050565b6000610d6b82610cd5565b610dcc5760405162461bcd60e51b815260206004820152602c60248201527f4552433732313a206f70657261746f7220717565727920666f72206e6f6e657860448201526b34b9ba32b73a103a37b5b2b760a11b60648201526084016104d4565b6000610dd783610886565b9050806001600160a01b0316846001600160a01b03161480610e125750836001600160a01b0316610e078461046c565b6001600160a01b0316145b80610e4257506001600160a01b03808216600090815260ce602090815260408083209388168352929052205460ff165b949350505050565b610e5382610cd5565b610eb65760405162461bcd60e51b815260206004820152602e60248201527f45524337323155524953746f726167653a2055524920736574206f66206e6f6e60448201526d32bc34b9ba32b73a103a37b5b2b760911b60648201526084016104d4565b600082815261012d60209081526040909120825161060a92840190611db7565b826001600160a01b0316610ee982610886565b6001600160a01b031614610f515760405162461bcd60e51b815260206004820152602960248201527f4552433732313a207472616e73666572206f6620746f6b656e2074686174206960448201526839903737ba1037bbb760b91b60648201526084016104d4565b6001600160a01b038216610fb35760405162461bcd60e51b8152602060048201526024808201527f4552433732313a207472616e7366657220746f20746865207a65726f206164646044820152637265737360e01b60648201526084016104d4565b610fbe600082610cf2565b6001600160a01b038316600090815260cc60205260408120805460019290610fe79084906123de565b90915550506001600160a01b038216600090815260cc60205260408120805460019290611015908490612393565b9091555050600081815260cb602052604080822080546001600160a01b0319166001600160a01b0386811691821790925591518493918716917fddf252ad1be2c89b69c2b068fc378daa952ba7f163c4a11628f55a4df523b3ef91a4505050565b600082815260656020526040902060010154611092813361163f565b61060a8383611545565b6001600160a01b038116331461110c5760405162461bcd60e51b815260206004820152602f60248201527f416363657373436f6e74726f6c3a2063616e206f6e6c792072656e6f756e636560448201526e103937b632b9903337b91039b2b63360891b60648201526084016104d4565b6107ed82826116a3565b600061099c836001600160a01b03841661170a565b6001600160a01b0382166111815760405162461bcd60e51b815260206004820181905260248201527f4552433732313a206d696e7420746f20746865207a65726f206164647265737360448201526064016104d4565b61118a81610cd5565b156111d75760405162461bcd60e51b815260206004820152601c60248201527f4552433732313a20746f6b656e20616c7265616479206d696e7465640000000060448201526064016104d4565b6001600160a01b038216600090815260cc60205260408120805460019290611200908490612393565b9091555050600081815260cb602052604080822080546001600160a01b0319166001600160a01b03861690811790915590518392907fddf252ad1be2c89b69c2b068fc378daa952ba7f163c4a11628f55a4df523b3ef908290a45050565b610883816117fd565b600061099c838361183f565b61127e848484610ed6565b61128a84848484611869565b610ad45760405162461bcd60e51b81526004016104d4906122a2565b60606112b182610cd5565b6113175760405162461bcd60e51b815260206004820152603160248201527f45524337323155524953746f726167653a2055524920717565727920666f72206044820152703737b732bc34b9ba32b73a103a37b5b2b760791b60648201526084016104d4565b600082815261012d60205260408120805461133190612438565b80601f016020809104026020016040519081016040528092919081815260200182805461135d90612438565b80156113aa5780601f1061137f576101008083540402835291602001916113aa565b820191906000526020600020905b81548152906001019060200180831161138d57829003601f168201915b5050505050905060006113c860408051602081019091526000815290565b90508051600014156113db575092915050565b81511561140d5780826040516020016113f59291906121ae565b60405160208183030381529060405292505050919050565b610e4284611976565b60006103d4825490565b60008281526065602052604090206001015461143c813361163f565b61060a83836116a3565b600054610100900460ff168061145f575060005460ff16155b61147b5760405162461bcd60e51b81526004016104d4906122f4565b600054610100900460ff16158015610b7d576000805461ffff19166101011790558015610883576000805461ff001916905550565b600054610100900460ff16806114c9575060005460ff16155b6114e55760405162461bcd60e51b81526004016104d4906122f4565b600054610100900460ff16158015611507576000805461ffff19166101011790555b825161151a9060c9906020860190611db7565b50815161152e9060ca906020850190611db7565b50801561060a576000805461ff0019169055505050565b61154f82826109a3565b6107ed5760008281526065602090815260408083206001600160a01b03851684529091529020805460ff191660011790556115873390565b6001600160a01b0316816001600160a01b0316837f2f8788117e7eff1d82e926ec794901d17c78024a50270940304540a733656f0d60405160405180910390a45050565b6000818152600183016020526040812054611612575081546001818101845560008481526020808220909301849055845484825282860190935260409020919091556103d4565b5060006103d4565b60006001600160e01b03198216635a05180f60e01b14806103d457506103d482611a4d565b61164982826109a3565b6107ed57611661816001600160a01b03166014611a82565b61166c836020611a82565b60405160200161167d9291906121dd565b60408051601f198184030181529082905262461bcd60e51b82526104d49160040161228f565b6116ad82826109a3565b156107ed5760008281526065602090815260408083206001600160a01b0385168085529252808320805460ff1916905551339285917ff6391f5c32d9c69d2a47ea670b442974b53935d1edc7fd64eb21e047a839171b9190a45050565b600081815260018301602052604081205480156117f357600061172e6001836123de565b8554909150600090611742906001906123de565b90508181146117a7576000866000018281548110611762576117626124e4565b9060005260206000200154905080876000018481548110611785576117856124e4565b6000918252602080832090910192909255918252600188019052604090208390555b85548690806117b8576117b86124ce565b6001900381819060005260206000200160009055905585600101600086815260200190815260200160002060009055600193505050506103d4565b60009150506103d4565b61180681611c1e565b600081815261012d60205260409020805461182090612438565b15905061088357600081815261012d6020526040812061088391611e3b565b6000826000018281548110611856576118566124e4565b9060005260206000200154905092915050565b60006001600160a01b0384163b1561196b57604051630a85bd0160e11b81526001600160a01b0385169063150b7a02906118ad903390899088908890600401612252565b602060405180830381600087803b1580156118c757600080fd5b505af19250505080156118f7575060408051601f3d908101601f191682019092526118f4918101906120e9565b60015b611951573d808015611925576040519150601f19603f3d011682016040523d82523d6000602084013e61192a565b606091505b5080516119495760405162461bcd60e51b81526004016104d4906122a2565b805181602001fd5b6001600160e01b031916630a85bd0160e11b149050610e42565b506001949350505050565b606061198182610cd5565b6119e55760405162461bcd60e51b815260206004820152602f60248201527f4552433732314d657461646174613a2055524920717565727920666f72206e6f60448201526e3732bc34b9ba32b73a103a37b5b2b760891b60648201526084016104d4565b60006119fc60408051602081019091526000815290565b90506000815111611a1c576040518060200160405280600081525061099c565b80611a2684611cb9565b604051602001611a379291906121ae565b6040516020818303038152906040529392505050565b60006001600160e01b03198216637965db0b60e01b14806103d457506301ffc9a760e01b6001600160e01b03198316146103d4565b60606000611a918360026123bf565b611a9c906002612393565b67ffffffffffffffff811115611ab457611ab46124fa565b6040519080825280601f01601f191660200182016040528015611ade576020820181803683370190505b509050600360fc1b81600081518110611af957611af96124e4565b60200101906001600160f81b031916908160001a905350600f60fb1b81600181518110611b2857611b286124e4565b60200101906001600160f81b031916908160001a9053506000611b4c8460026123bf565b611b57906001612393565b90505b6001811115611bcf576f181899199a1a9b1b9c1cb0b131b232b360811b85600f1660108110611b8b57611b8b6124e4565b1a60f81b828281518110611ba157611ba16124e4565b60200101906001600160f81b031916908160001a90535060049490941c93611bc881612421565b9050611b5a565b50831561099c5760405162461bcd60e51b815260206004820181905260248201527f537472696e67733a20686578206c656e67746820696e73756666696369656e7460448201526064016104d4565b6000611c2982610886565b9050611c36600083610cf2565b6001600160a01b038116600090815260cc60205260408120805460019290611c5f9084906123de565b9091555050600082815260cb602052604080822080546001600160a01b0319169055518391906001600160a01b038416907fddf252ad1be2c89b69c2b068fc378daa952ba7f163c4a11628f55a4df523b3ef908390a45050565b606081611cdd5750506040805180820190915260018152600360fc1b602082015290565b8160005b8115611d075780611cf181612473565b9150611d009050600a836123ab565b9150611ce1565b60008167ffffffffffffffff811115611d2257611d226124fa565b6040519080825280601f01601f191660200182016040528015611d4c576020820181803683370190505b5090505b8415610e4257611d616001836123de565b9150611d6e600a8661248e565b611d79906030612393565b60f81b818381518110611d8e57611d8e6124e4565b60200101906001600160f81b031916908160001a905350611db0600a866123ab565b9450611d50565b828054611dc390612438565b90600052602060002090601f016020900481019282611de55760008555611e2b565b82601f10611dfe57805160ff1916838001178555611e2b565b82800160010185558215611e2b579182015b82811115611e2b578251825591602001919060010190611e10565b50611e37929150611e71565b5090565b508054611e4790612438565b6000825580601f10611e57575050565b601f01602090049060005260206000209081019061088391905b5b80821115611e375760008155600101611e72565b80356001600160a01b0381168114611e9d57600080fd5b919050565b600060208284031215611eb457600080fd5b61099c82611e86565b60008060408385031215611ed057600080fd5b611ed983611e86565b9150611ee760208401611e86565b90509250929050565b600080600060608486031215611f0557600080fd5b611f0e84611e86565b9250611f1c60208501611e86565b9150604084013590509250925092565b60008060008060808587031215611f4257600080fd5b611f4b85611e86565b9350611f5960208601611e86565b925060408501359150606085013567ffffffffffffffff80821115611f7d57600080fd5b818701915087601f830112611f9157600080fd5b813581811115611fa357611fa36124fa565b604051601f8201601f19908116603f01168101908382118183101715611fcb57611fcb6124fa565b816040528281528a6020848701011115611fe457600080fd5b82602086016020830137600060208483010152809550505050505092959194509250565b6000806040838503121561201b57600080fd5b61202483611e86565b91506020830135801515811461203957600080fd5b809150509250929050565b6000806040838503121561205757600080fd5b61206083611e86565b946020939093013593505050565b60006020828403121561208057600080fd5b5035919050565b6000806040838503121561209a57600080fd5b82359150611ee760208401611e86565b600080604083850312156120bd57600080fd5b50508035926020909101359150565b6000602082840312156120de57600080fd5b813561099c81612510565b6000602082840312156120fb57600080fd5b815161099c81612510565b60008060006040848603121561211b57600080fd5b83359250602084013567ffffffffffffffff8082111561213a57600080fd5b818601915086601f83011261214e57600080fd5b81358181111561215d57600080fd5b87602082850101111561216f57600080fd5b6020830194508093505050509250925092565b6000815180845261219a8160208601602086016123f5565b601f01601f19169290920160200192915050565b600083516121c08184602088016123f5565b8351908301906121d48183602088016123f5565b01949350505050565b7f416363657373436f6e74726f6c3a206163636f756e74200000000000000000008152600083516122158160178501602088016123f5565b7001034b99036b4b9b9b4b733903937b6329607d1b60179184019182015283516122468160288401602088016123f5565b01602801949350505050565b6001600160a01b038581168252841660208201526040810183905260806060820181905260009061228590830184612182565b9695505050505050565b60208152600061099c6020830184612182565b60208082526032908201527f4552433732313a207472616e7366657220746f206e6f6e20455243373231526560408201527131b2b4bb32b91034b6b83632b6b2b73a32b960711b606082015260800190565b6020808252602e908201527f496e697469616c697a61626c653a20636f6e747261637420697320616c72656160408201526d191e481a5b9a5d1a585b1a5e995960921b606082015260800190565b60208082526031908201527f4552433732313a207472616e736665722063616c6c6572206973206e6f74206f6040820152701ddb995c881b9bdc88185c1c1c9bdd9959607a1b606082015260800190565b600082198211156123a6576123a66124a2565b500190565b6000826123ba576123ba6124b8565b500490565b60008160001904831182151516156123d9576123d96124a2565b500290565b6000828210156123f0576123f06124a2565b500390565b60005b838110156124105781810151838201526020016123f8565b83811115610ad45750506000910152565b600081612430576124306124a2565b506000190190565b600181811c9082168061244c57607f821691505b6020821081141561246d57634e487b7160e01b600052602260045260246000fd5b50919050565b6000600019821415612487576124876124a2565b5060010190565b60008261249d5761249d6124b8565b500690565b634e487b7160e01b600052601160045260246000fd5b634e487b7160e01b600052601260045260246000fd5b634e487b7160e01b600052603160045260246000fd5b634e487b7160e01b600052603260045260246000fd5b634e487b7160e01b600052604160045260246000fd5b6001600160e01b03198116811461088357600080fdfea26469706673582212208ed20c6cf523ca2fdd4485bf52037838db49129349ca9526f58c2c5a8613386264736f6c63430008060033496e697469616c697a61626c653a20636f6e747261637420697320616c7265619f2df0fed2c77648de5860a4cc508cd0818c85b8b8a1ab4ceeef8d981c8956a6",
  "linkReferences": {},
  "deployedLinkReferences": {}
}