{
  "_format": "hh-sol-artifact-1",
  "contractName": "KeyStorage",
  "sourceName": "contracts/schain/KeyStorage.sol",
  "abi": [
    {
      "anonymous": false,
      "inputs": [
        {
          "indexed": true,
          "internalType": "bytes32",
          "name": "role",
          "type": "bytes32"
        },
        {
          "indexed": true,
          "internalType": "bytes32",
          "name": "previousAdminRole",
          "type": "bytes32"
        },
        {
          "indexed": true,
          "internalType": "bytes32",
          "name": "newAdminRole",
          "type": "bytes32"
        }
      ],
      "name": "RoleAdminChanged",
      "type": "event"
    },
    {
      "anonymous": false,
      "inputs": [
        {
          "indexed": true,
          "internalType": "bytes32",
          "name": "role",
          "type": "bytes32"
        },
        {
          "indexed": true,
          "internalType": "address",
          "name": "account",
          "type": "address"
        },
        {
          "indexed": true,
          "internalType": "address",
          "name": "sender",
          "type": "address"
        }
      ],
      "name": "RoleGranted",
      "type": "event"
    },
    {
      "anonymous": false,
      "inputs": [
        {
          "indexed": true,
          "internalType": "bytes32",
          "name": "role",
          "type": "bytes32"
        },
        {
          "indexed": true,
          "internalType": "address",
          "name": "account",
          "type": "address"
        },
        {
          "indexed": true,
          "internalType": "address",
          "name": "sender",
          "type": "address"
        }
      ],
      "name": "RoleRevoked",
      "type": "event"
    },
    {
      "inputs": [],
      "name": "DEFAULT_ADMIN_ROLE",
      "outputs": [
        {
          "internalType": "bytes32",
          "name": "",
          "type": "bytes32"
        }
      ],
      "stateMutability": "view",
      "type": "function"
    },
    {
      "inputs": [],
      "name": "FN_NUM_GET_CONFIG_VARIABLE_UINT256",
      "outputs": [
        {
          "internalType": "uint256",
          "name": "",
          "type": "uint256"
        }
      ],
      "stateMutability": "view",
      "type": "function"
    },
    {
      "inputs": [],
      "name": "FREE_MEM_PTR",
      "outputs": [
        {
          "internalType": "uint256",
          "name": "",
          "type": "uint256"
        }
      ],
      "stateMutability": "view",
      "type": "function"
    },
    {
      "inputs": [],
      "name": "getBlsCommonPublicKey",
      "outputs": [
        {
          "components": [
            {
              "components": [
                {
                  "internalType": "uint256",
                  "name": "a",
                  "type": "uint256"
                },
                {
                  "internalType": "uint256",
                  "name": "b",
                  "type": "uint256"
                }
              ],
              "internalType": "struct Fp2Operations.Fp2Point",
              "name": "x",
              "type": "tuple"
            },
            {
              "components": [
                {
                  "internalType": "uint256",
                  "name": "a",
                  "type": "uint256"
                },
                {
                  "internalType": "uint256",
                  "name": "b",
                  "type": "uint256"
                }
              ],
              "internalType": "struct Fp2Operations.Fp2Point",
              "name": "y",
              "type": "tuple"
            }
          ],
          "internalType": "struct G2Operations.G2Point",
          "name": "",
          "type": "tuple"
        }
      ],
      "stateMutability": "view",
      "type": "function"
    },
    {
      "inputs": [
        {
          "internalType": "bytes32",
          "name": "role",
          "type": "bytes32"
        }
      ],
      "name": "getRoleAdmin",
      "outputs": [
        {
          "internalType": "bytes32",
          "name": "",
          "type": "bytes32"
        }
      ],
      "stateMutability": "view",
      "type": "function"
    },
    {
      "inputs": [
        {
          "internalType": "bytes32",
          "name": "role",
          "type": "bytes32"
        },
        {
          "internalType": "uint256",
          "name": "index",
          "type": "uint256"
        }
      ],
      "name": "getRoleMember",
      "outputs": [
        {
          "internalType": "address",
          "name": "",
          "type": "address"
        }
      ],
      "stateMutability": "view",
      "type": "function"
    },
    {
      "inputs": [
        {
          "internalType": "bytes32",
          "name": "role",
          "type": "bytes32"
        }
      ],
      "name": "getRoleMemberCount",
      "outputs": [
        {
          "internalType": "uint256",
          "name": "",
          "type": "uint256"
        }
      ],
      "stateMutability": "view",
      "type": "function"
    },
    {
      "inputs": [
        {
          "internalType": "bytes32",
          "name": "role",
          "type": "bytes32"
        },
        {
          "internalType": "address",
          "name": "account",
          "type": "address"
        }
      ],
      "name": "grantRole",
      "outputs": [],
      "stateMutability": "nonpayable",
      "type": "function"
    },
    {
      "inputs": [
        {
          "internalType": "bytes32",
          "name": "role",
          "type": "bytes32"
        },
        {
          "internalType": "address",
          "name": "account",
          "type": "address"
        }
      ],
      "name": "hasRole",
      "outputs": [
        {
          "internalType": "bool",
          "name": "",
          "type": "bool"
        }
      ],
      "stateMutability": "view",
      "type": "function"
    },
    {
      "inputs": [],
      "name": "initialize",
      "outputs": [],
      "stateMutability": "nonpayable",
      "type": "function"
    },
    {
      "inputs": [
        {
          "internalType": "bytes32",
          "name": "role",
          "type": "bytes32"
        },
        {
          "internalType": "address",
          "name": "account",
          "type": "address"
        }
      ],
      "name": "renounceRole",
      "outputs": [],
      "stateMutability": "nonpayable",
      "type": "function"
    },
    {
      "inputs": [
        {
          "internalType": "bytes32",
          "name": "role",
          "type": "bytes32"
        },
        {
          "internalType": "address",
          "name": "account",
          "type": "address"
        }
      ],
      "name": "revokeRole",
      "outputs": [],
      "stateMutability": "nonpayable",
      "type": "function"
    },
    {
      "inputs": [
        {
          "internalType": "bytes4",
          "name": "interfaceId",
          "type": "bytes4"
        }
      ],
      "name": "supportsInterface",
      "outputs": [
        {
          "internalType": "bool",
          "name": "",
          "type": "bool"
        }
      ],
      "stateMutability": "view",
      "type": "function"
    }
  ],
  "bytecode": "0x608060405234801561001057600080fd5b50610f83806100206000396000f3fe608060405234801561001057600080fd5b50600436106100cf5760003560e01c80638129fc1c1161008c578063a217fddf11610066578063a217fddf146101b8578063ab2a5853146101c0578063ca15c873146101c8578063d547741f146101db57600080fd5b80638129fc1c146101725780639010d07c1461017a57806391d14854146101a557600080fd5b806301ffc9a7146100d4578063248a9ca3146100fc5780632f2ff15d1461012d57806336568abe14610142578063554ef7a614610155578063573c8aba1461016a575b600080fd5b6100e76100e2366004610c1f565b6101ee565b60405190151581526020015b60405180910390f35b61011f61010a366004610ba8565b60009081526065602052604090206001015490565b6040519081526020016100f3565b61014061013b366004610bc1565b610219565b005b610140610150366004610bc1565b610240565b61015d610262565b6040516100f39190610d3f565b61011f604081565b610140610321565b61018d610188366004610bfd565b6103a9565b6040516001600160a01b0390911681526020016100f3565b6100e76101b3366004610bc1565b6103c8565b61011f600081565b61011f601381565b61011f6101d6366004610ba8565b6103f3565b6101406101e9366004610bc1565b61040a565b60006001600160e01b03198216635a05180f60e01b1480610213575061021382610414565b92915050565b6102238282610449565b600082815260976020526040902061023b908261046f565b505050565b61024a8282610484565b600082815260976020526040902061023b9082610502565b61026a610b64565b6040805160e0810182526034608082018181529192839290830191829161029891610e7e60a0870139610517565b81526020016102be604051806060016040528060348152602001610f1a60349139610517565b815250815260200160405180604001604052806102f2604051806060016040528060348152602001610ee660349139610517565b8152602001610318604051806060016040528060348152602001610eb260349139610517565b90529052919050565b600054610100900460ff168061033a575060005460ff16155b61035f5760405162461bcd60e51b815260040161035690610cf1565b60405180910390fd5b600054610100900460ff16158015610381576000805461ffff19166101011790555b6103896105d3565b61039460003361064a565b80156103a6576000805461ff00191690555b50565b60008281526097602052604081206103c19083610654565b9392505050565b60009182526065602090815260408084206001600160a01b0393909316845291905290205460ff1690565b600081815260976020526040812061021390610660565b61024a828261066a565b60006001600160e01b03198216637965db0b60e01b148061021357506301ffc9a760e01b6001600160e01b0319831614610213565b6000828152606560205260409020600101546104658133610690565b61023b83836106f4565b60006103c1836001600160a01b03841661077a565b6001600160a01b03811633146104f45760405162461bcd60e51b815260206004820152602f60248201527f416363657373436f6e74726f6c3a2063616e206f6e6c792072656e6f756e636560448201526e103937b632b9903337b91039b2b63360891b6064820152608401610356565b6104fe82826107c9565b5050565b60006103c1836001600160a01b038416610830565b60008060409050600060208451601f6105309190610d6e565b61053a9190610d86565b610545906001610d6e565b90506000825160005b8381101561056a5760208102878101519083015260010161054e565b50602081848202816013600019fa905194509050806105cb5760405162461bcd60e51b815260206004820152601960248201527f47657420636f6e6669672075696e74323536206661696c6564000000000000006044820152606401610356565b505050919050565b600054610100900460ff16806105ec575060005460ff16155b6106085760405162461bcd60e51b815260040161035690610cf1565b600054610100900460ff1615801561062a576000805461ffff19166101011790555b61063261092a565b61063a61092a565b61064261092a565b61039461092a565b6102238282610994565b60006103c1838361099e565b6000610213825490565b6000828152606560205260409020600101546106868133610690565b61023b83836107c9565b61069a82826103c8565b6104fe576106b2816001600160a01b031660146109c8565b6106bd8360206109c8565b6040516020016106ce929190610c49565b60408051601f198184030181529082905262461bcd60e51b825261035691600401610cbe565b6106fe82826103c8565b6104fe5760008281526065602090815260408083206001600160a01b03851684529091529020805460ff191660011790556107363390565b6001600160a01b0316816001600160a01b0316837f2f8788117e7eff1d82e926ec794901d17c78024a50270940304540a733656f0d60405160405180910390a45050565b60008181526001830160205260408120546107c157508154600181810184556000848152602080822090930184905584548482528286019093526040902091909155610213565b506000610213565b6107d382826103c8565b156104fe5760008281526065602090815260408083206001600160a01b0385168085529252808320805460ff1916905551339285917ff6391f5c32d9c69d2a47ea670b442974b53935d1edc7fd64eb21e047a839171b9190a45050565b60008181526001830160205260408120548015610919576000610854600183610dc7565b855490915060009061086890600190610dc7565b90508181146108cd57600086600001828154811061088857610888610e51565b90600052602060002001549050808760000184815481106108ab576108ab610e51565b6000918252602080832090910192909255918252600188019052604090208390555b85548690806108de576108de610e3b565b600190038181906000526020600020016000905590558560010160008681526020019081526020016000206000905560019350505050610213565b6000915050610213565b5092915050565b600054610100900460ff1680610943575060005460ff16155b61095f5760405162461bcd60e51b815260040161035690610cf1565b600054610100900460ff16158015610394576000805461ffff191661010117905580156103a6576000805461ff001916905550565b6104fe82826106f4565b60008260000182815481106109b5576109b5610e51565b9060005260206000200154905092915050565b606060006109d7836002610da8565b6109e2906002610d6e565b67ffffffffffffffff8111156109fa576109fa610e67565b6040519080825280601f01601f191660200182016040528015610a24576020820181803683370190505b509050600360fc1b81600081518110610a3f57610a3f610e51565b60200101906001600160f81b031916908160001a905350600f60fb1b81600181518110610a6e57610a6e610e51565b60200101906001600160f81b031916908160001a9053506000610a92846002610da8565b610a9d906001610d6e565b90505b6001811115610b15576f181899199a1a9b1b9c1cb0b131b232b360811b85600f1660108110610ad157610ad1610e51565b1a60f81b828281518110610ae757610ae7610e51565b60200101906001600160f81b031916908160001a90535060049490941c93610b0e81610e0e565b9050610aa0565b5083156103c15760405162461bcd60e51b815260206004820181905260248201527f537472696e67733a20686578206c656e67746820696e73756666696369656e746044820152606401610356565b60408051608081018252600091810182815260608201929092529081908152602001610ba3604051806040016040528060008152602001600081525090565b905290565b600060208284031215610bba57600080fd5b5035919050565b60008060408385031215610bd457600080fd5b8235915060208301356001600160a01b0381168114610bf257600080fd5b809150509250929050565b60008060408385031215610c1057600080fd5b50508035926020909101359150565b600060208284031215610c3157600080fd5b81356001600160e01b0319811681146103c157600080fd5b7f416363657373436f6e74726f6c3a206163636f756e7420000000000000000000815260008351610c81816017850160208801610dde565b7001034b99036b4b9b9b4b733903937b6329607d1b6017918401918201528351610cb2816028840160208801610dde565b01602801949350505050565b6020815260008251806020840152610cdd816040850160208701610dde565b601f01601f19169190910160400192915050565b6020808252602e908201527f496e697469616c697a61626c653a20636f6e747261637420697320616c72656160408201526d191e481a5b9a5d1a585b1a5e995960921b606082015260800190565b815180518252602090810151908201526080810160208381015180516040850152908101516060840152610923565b60008219821115610d8157610d81610e25565b500190565b600082610da357634e487b7160e01b600052601260045260246000fd5b500490565b6000816000190483118215151615610dc257610dc2610e25565b500290565b600082821015610dd957610dd9610e25565b500390565b60005b83811015610df9578181015183820152602001610de1565b83811115610e08576000848401525b50505050565b600081610e1d57610e1d610e25565b506000190190565b634e487b7160e01b600052601160045260246000fd5b634e487b7160e01b600052603160045260246000fd5b634e487b7160e01b600052603260045260246000fd5b634e487b7160e01b600052604160045260246000fdfe736b616c65436f6e6669672e6e6f6465496e666f2e77616c6c6574732e696d612e636f6d6d6f6e424c535075626c69634b657930736b616c65436f6e6669672e6e6f6465496e666f2e77616c6c6574732e696d612e636f6d6d6f6e424c535075626c69634b657933736b616c65436f6e6669672e6e6f6465496e666f2e77616c6c6574732e696d612e636f6d6d6f6e424c535075626c69634b657932736b616c65436f6e6669672e6e6f6465496e666f2e77616c6c6574732e696d612e636f6d6d6f6e424c535075626c69634b657931a2646970667358221220368971e531822257d82f63708bf7068c3b3e3e66588643b260288d6255470e8e64736f6c63430008060033",
  "linkReferences": {},
  "deployedLinkReferences": {}
}