{
  "_format": "hh-sol-artifact-1",
  "contractName": "TokenManagerEth",
  "sourceName": "contracts/schain/TokenManagers/TokenManagerEth.sol",
  "abi": [
    {
      "anonymous": false,
      "inputs": [
        {
          "indexed": false,
          "internalType": "address",
          "name": "oldValue",
          "type": "address"
        },
        {
          "indexed": false,
          "internalType": "address",
          "name": "newValue",
          "type": "address"
        }
      ],
      "name": "DepositBoxWasChanged",
      "type": "event"
    },
    {
      "anonymous": false,
      "inputs": [
        {
          "indexed": true,
          "internalType": "bytes32",
          "name": "role",
          "type": "bytes32"
        },
        {
          "indexed": true,
          "internalType": "bytes32",
          "name": "previousAdminRole",
          "type": "bytes32"
        },
        {
          "indexed": true,
          "internalType": "bytes32",
          "name": "newAdminRole",
          "type": "bytes32"
        }
      ],
      "name": "RoleAdminChanged",
      "type": "event"
    },
    {
      "anonymous": false,
      "inputs": [
        {
          "indexed": true,
          "internalType": "bytes32",
          "name": "role",
          "type": "bytes32"
        },
        {
          "indexed": true,
          "internalType": "address",
          "name": "account",
          "type": "address"
        },
        {
          "indexed": true,
          "internalType": "address",
          "name": "sender",
          "type": "address"
        }
      ],
      "name": "RoleGranted",
      "type": "event"
    },
    {
      "anonymous": false,
      "inputs": [
        {
          "indexed": true,
          "internalType": "bytes32",
          "name": "role",
          "type": "bytes32"
        },
        {
          "indexed": true,
          "internalType": "address",
          "name": "account",
          "type": "address"
        },
        {
          "indexed": true,
          "internalType": "address",
          "name": "sender",
          "type": "address"
        }
      ],
      "name": "RoleRevoked",
      "type": "event"
    },
    {
      "inputs": [],
      "name": "AUTOMATIC_DEPLOY_ROLE",
      "outputs": [
        {
          "internalType": "bytes32",
          "name": "",
          "type": "bytes32"
        }
      ],
      "stateMutability": "view",
      "type": "function"
    },
    {
      "inputs": [],
      "name": "DEFAULT_ADMIN_ROLE",
      "outputs": [
        {
          "internalType": "bytes32",
          "name": "",
          "type": "bytes32"
        }
      ],
      "stateMutability": "view",
      "type": "function"
    },
    {
      "inputs": [],
      "name": "MAINNET_HASH",
      "outputs": [
        {
          "internalType": "bytes32",
          "name": "",
          "type": "bytes32"
        }
      ],
      "stateMutability": "view",
      "type": "function"
    },
    {
      "inputs": [],
      "name": "MAINNET_NAME",
      "outputs": [
        {
          "internalType": "string",
          "name": "",
          "type": "string"
        }
      ],
      "stateMutability": "view",
      "type": "function"
    },
    {
      "inputs": [],
      "name": "TOKEN_REGISTRAR_ROLE",
      "outputs": [
        {
          "internalType": "bytes32",
          "name": "",
          "type": "bytes32"
        }
      ],
      "stateMutability": "view",
      "type": "function"
    },
    {
      "inputs": [
        {
          "internalType": "string",
          "name": "schainName",
          "type": "string"
        },
        {
          "internalType": "address",
          "name": "newTokenManager",
          "type": "address"
        }
      ],
      "name": "addTokenManager",
      "outputs": [],
      "stateMutability": "nonpayable",
      "type": "function"
    },
    {
      "inputs": [],
      "name": "automaticDeploy",
      "outputs": [
        {
          "internalType": "bool",
          "name": "",
          "type": "bool"
        }
      ],
      "stateMutability": "view",
      "type": "function"
    },
    {
      "inputs": [
        {
          "internalType": "address",
          "name": "newDepositBox",
          "type": "address"
        }
      ],
      "name": "changeDepositBoxAddress",
      "outputs": [],
      "stateMutability": "nonpayable",
      "type": "function"
    },
    {
      "inputs": [],
      "name": "communityLocker",
      "outputs": [
        {
          "internalType": "contract CommunityLocker",
          "name": "",
          "type": "address"
        }
      ],
      "stateMutability": "view",
      "type": "function"
    },
    {
      "inputs": [],
      "name": "depositBox",
      "outputs": [
        {
          "internalType": "address",
          "name": "",
          "type": "address"
        }
      ],
      "stateMutability": "view",
      "type": "function"
    },
    {
      "inputs": [],
      "name": "disableAutomaticDeploy",
      "outputs": [],
      "stateMutability": "nonpayable",
      "type": "function"
    },
    {
      "inputs": [],
      "name": "enableAutomaticDeploy",
      "outputs": [],
      "stateMutability": "nonpayable",
      "type": "function"
    },
    {
      "inputs": [],
      "name": "ethErc20",
      "outputs": [
        {
          "internalType": "contract EthErc20",
          "name": "",
          "type": "address"
        }
      ],
      "stateMutability": "view",
      "type": "function"
    },
    {
      "inputs": [
        {
          "internalType": "uint256",
          "name": "amount",
          "type": "uint256"
        }
      ],
      "name": "exitToMain",
      "outputs": [],
      "stateMutability": "nonpayable",
      "type": "function"
    },
    {
      "inputs": [
        {
          "internalType": "bytes32",
          "name": "role",
          "type": "bytes32"
        }
      ],
      "name": "getRoleAdmin",
      "outputs": [
        {
          "internalType": "bytes32",
          "name": "",
          "type": "bytes32"
        }
      ],
      "stateMutability": "view",
      "type": "function"
    },
    {
      "inputs": [
        {
          "internalType": "bytes32",
          "name": "role",
          "type": "bytes32"
        },
        {
          "internalType": "uint256",
          "name": "index",
          "type": "uint256"
        }
      ],
      "name": "getRoleMember",
      "outputs": [
        {
          "internalType": "address",
          "name": "",
          "type": "address"
        }
      ],
      "stateMutability": "view",
      "type": "function"
    },
    {
      "inputs": [
        {
          "internalType": "bytes32",
          "name": "role",
          "type": "bytes32"
        }
      ],
      "name": "getRoleMemberCount",
      "outputs": [
        {
          "internalType": "uint256",
          "name": "",
          "type": "uint256"
        }
      ],
      "stateMutability": "view",
      "type": "function"
    },
    {
      "inputs": [
        {
          "internalType": "bytes32",
          "name": "role",
          "type": "bytes32"
        },
        {
          "internalType": "address",
          "name": "account",
          "type": "address"
        }
      ],
      "name": "grantRole",
      "outputs": [],
      "stateMutability": "nonpayable",
      "type": "function"
    },
    {
      "inputs": [
        {
          "internalType": "bytes32",
          "name": "role",
          "type": "bytes32"
        },
        {
          "internalType": "address",
          "name": "account",
          "type": "address"
        }
      ],
      "name": "hasRole",
      "outputs": [
        {
          "internalType": "bool",
          "name": "",
          "type": "bool"
        }
      ],
      "stateMutability": "view",
      "type": "function"
    },
    {
      "inputs": [
        {
          "internalType": "string",
          "name": "schainName",
          "type": "string"
        }
      ],
      "name": "hasTokenManager",
      "outputs": [
        {
          "internalType": "bool",
          "name": "",
          "type": "bool"
        }
      ],
      "stateMutability": "view",
      "type": "function"
    },
    {
      "inputs": [
        {
          "internalType": "string",
          "name": "newChainName",
          "type": "string"
        },
        {
          "internalType": "contract MessageProxyForSchain",
          "name": "newMessageProxy",
          "type": "address"
        },
        {
          "internalType": "contract TokenManagerLinker",
          "name": "newIMALinker",
          "type": "address"
        },
        {
          "internalType": "contract CommunityLocker",
          "name": "newCommunityLocker",
          "type": "address"
        },
        {
          "internalType": "address",
          "name": "newDepositBox",
          "type": "address"
        },
        {
          "internalType": "contract EthErc20",
          "name": "ethErc20Address",
          "type": "address"
        }
      ],
      "name": "initialize",
      "outputs": [],
      "stateMutability": "nonpayable",
      "type": "function"
    },
    {
      "inputs": [
        {
          "internalType": "string",
          "name": "newSchainName",
          "type": "string"
        },
        {
          "internalType": "contract MessageProxyForSchain",
          "name": "newMessageProxy",
          "type": "address"
        },
        {
          "internalType": "contract TokenManagerLinker",
          "name": "newIMALinker",
          "type": "address"
        },
        {
          "internalType": "contract CommunityLocker",
          "name": "newCommunityLocker",
          "type": "address"
        },
        {
          "internalType": "address",
          "name": "newDepositBox",
          "type": "address"
        }
      ],
      "name": "initializeTokenManager",
      "outputs": [],
      "stateMutability": "nonpayable",
      "type": "function"
    },
    {
      "inputs": [],
      "name": "messageProxy",
      "outputs": [
        {
          "internalType": "contract MessageProxyForSchain",
          "name": "",
          "type": "address"
        }
      ],
      "stateMutability": "view",
      "type": "function"
    },
    {
      "inputs": [
        {
          "internalType": "bytes32",
          "name": "fromChainHash",
          "type": "bytes32"
        },
        {
          "internalType": "address",
          "name": "sender",
          "type": "address"
        },
        {
          "internalType": "bytes",
          "name": "data",
          "type": "bytes"
        }
      ],
      "name": "postMessage",
      "outputs": [
        {
          "internalType": "address",
          "name": "",
          "type": "address"
        }
      ],
      "stateMutability": "nonpayable",
      "type": "function"
    },
    {
      "inputs": [
        {
          "internalType": "string",
          "name": "schainName",
          "type": "string"
        }
      ],
      "name": "removeTokenManager",
      "outputs": [],
      "stateMutability": "nonpayable",
      "type": "function"
    },
    {
      "inputs": [
        {
          "internalType": "bytes32",
          "name": "role",
          "type": "bytes32"
        },
        {
          "internalType": "address",
          "name": "account",
          "type": "address"
        }
      ],
      "name": "renounceRole",
      "outputs": [],
      "stateMutability": "nonpayable",
      "type": "function"
    },
    {
      "inputs": [
        {
          "internalType": "bytes32",
          "name": "role",
          "type": "bytes32"
        },
        {
          "internalType": "address",
          "name": "account",
          "type": "address"
        }
      ],
      "name": "revokeRole",
      "outputs": [],
      "stateMutability": "nonpayable",
      "type": "function"
    },
    {
      "inputs": [],
      "name": "schainHash",
      "outputs": [
        {
          "internalType": "bytes32",
          "name": "",
          "type": "bytes32"
        }
      ],
      "stateMutability": "view",
      "type": "function"
    },
    {
      "inputs": [
        {
          "internalType": "contract EthErc20",
          "name": "newEthErc20Address",
          "type": "address"
        }
      ],
      "name": "setEthErc20Address",
      "outputs": [],
      "stateMutability": "nonpayable",
      "type": "function"
    },
    {
      "inputs": [
        {
          "internalType": "bytes4",
          "name": "interfaceId",
          "type": "bytes4"
        }
      ],
      "name": "supportsInterface",
      "outputs": [
        {
          "internalType": "bool",
          "name": "",
          "type": "bool"
        }
      ],
      "stateMutability": "view",
      "type": "function"
    },
    {
      "inputs": [],
      "name": "tokenManagerLinker",
      "outputs": [
        {
          "internalType": "contract TokenManagerLinker",
          "name": "",
          "type": "address"
        }
      ],
      "stateMutability": "view",
      "type": "function"
    },
    {
      "inputs": [
        {
          "internalType": "bytes32",
          "name": "",
          "type": "bytes32"
        }
      ],
      "name": "tokenManagers",
      "outputs": [
        {
          "internalType": "address",
          "name": "",
          "type": "address"
        }
      ],
      "stateMutability": "view",
      "type": "function"
    },
    {
      "inputs": [
        {
          "internalType": "string",
          "name": "targetSchainName",
          "type": "string"
        },
        {
          "internalType": "uint256",
          "name": "amount",
          "type": "uint256"
        }
      ],
      "name": "transferToSchain",
      "outputs": [],
      "stateMutability": "nonpayable",
      "type": "function"
    }
  ],
  "bytecode": "0x608060405234801561001057600080fd5b5061233e806100206000396000f3fe608060405234801561001057600080fd5b50600436106101fb5760003560e01c80636d6c68e61161011a578063b9581c50116100ad578063cc5b715b1161007c578063cc5b715b14610463578063d547741f1461048a578063dec2deb61461049d578063edcc12b5146104b1578063eeeb9601146104c457600080fd5b8063b9581c5014610422578063c0e312dc1461042a578063ca15c8731461043d578063cb703bff1461045057600080fd5b80639010d07c116100e95780639010d07c146103e157806391d14854146103f457806392d7846a14610407578063a217fddf1461041a57600080fd5b80636d6c68e6146103955780638182e707146103a8578063884cee5a146103bb5780638b71b4b5146103ce57600080fd5b806339927cf91161019257806350f442801161016157806350f44280146103295780635573b8b61461035c5780636ce681d21461036f5780636d6112861461038257600080fd5b806339927cf9146102e55780633b690b6b146102f85780633be2ba0c146103015780633fa194ce1461031457600080fd5b806328c5e182116101ce57806328c5e182146102a45780632dc151de146102ac5780632f2ff15d146102bf57806336568abe146102d257600080fd5b806301ffc9a714610200578063029996b8146102285780630f1a8f7414610232578063248a9ca314610273575b600080fd5b61021361020e366004611c7f565b6104d7565b60405190151581526020015b60405180910390f35b610230610502565b005b61025b610240366004611bb8565b60ce602052600090815260409020546001600160a01b031681565b6040516001600160a01b03909116815260200161021f565b610296610281366004611bb8565b60009081526065602052604090206001015490565b60405190815260200161021f565b610296610554565b60ca5461025b906001600160a01b031681565b6102306102cd366004611bd1565b61059d565b6102306102e0366004611bd1565b6105c4565b6102136102f3366004611cc4565b6105e6565b61029660cc5481565b61023061030f366004611e82565b610641565b6102966000805160206122e983398151915281565b61034f6040518060400160405280600781526020016613585a5b9b995d60ca1b81525081565b60405161021f9190612067565b60c95461025b906001600160a01b031681565b61023061037d366004611d5d565b610827565b60cd5461025b906001600160a01b031681565b60cb5461025b906001600160a01b031681565b6102306103b6366004611de7565b6109e9565b61025b6103c9366004611c01565b610a83565b6102306103dc366004611b9b565b610c92565b61025b6103ef366004611c5d565b610d2f565b610213610402366004611bd1565b610d4e565b60cf5461025b906001600160a01b031681565b610296600081565b610230610d79565b610230610438366004611cc4565b610dbc565b61029661044b366004611bb8565b610ea9565b61023061045e366004611d06565b610ec0565b6102967ffda70c2cc66a36c14884ee85424961f51b1d92b4494751699b6d105b3bcbcba881565b610230610498366004611bd1565b611014565b60cd5461021390600160a01b900460ff1681565b6102306104bf366004611b9b565b61101e565b6102306104d2366004611bb8565b611134565b60006001600160e01b03198216635a05180f60e01b14806104fc57506104fc826111f2565b92915050565b61051a6000805160206122e983398151915233610d4e565b61053f5760405162461bcd60e51b81526004016105369061207a565b60405180910390fd5b60cd805460ff60a01b1916600160a01b179055565b6040518060400160405280600781526020016613585a5b9b995d60ca1b8152506040516020016105849190611fa3565b6040516020818303038152906040528051906020012081565b6105a78282611227565b60008281526097602052604090206105bf908261124d565b505050565b6105ce8282611262565b60008281526097602052604090206105bf90826112e0565b6000806001600160a01b031660ce60008585604051602001610609929190611f93565b60408051808303601f19018152918152815160209283012083529082019290925201600020546001600160a01b031614159392505050565b81336000826040516020016106569190611fa3565b60408051601f1981840301815282825280516020918201208383018352600784526613585a5b9b995d60ca1b848301529151919350610696929101611fa3565b604051602081830303815290604052805190602001208114156107145760405162461bcd60e51b815260206004820152603060248201527f546869732066756e6374696f6e206973206e6f7420666f72207472616e73666560448201526f1c9c9a5b99c81d1bc813585a5b9b995d60821b6064820152608401610536565b6001600160a01b03821661076a5760405162461bcd60e51b815260206004820152601a60248201527f496e636f727265637420726563656976657220616464726573730000000000006044820152606401610536565b600081815260ce60205260409020546001600160a01b03166107ce5760405162461bcd60e51b815260206004820152601f60248201527f496e636f727265637420546f6b656e204d616e616765722061646472657373006044820152606401610536565b6000856040516020016107e19190611fa3565b60408051601f198184030181529181528151602092830120600081815260ce90935291205490915061081f9082906001600160a01b031633886112f5565b505050505050565b600054610100900460ff1680610840575060005460ff16155b61085c5760405162461bcd60e51b8152600401610536906120bb565b600054610100900460ff1615801561087e576000805461ffff19166101011790555b6001600160a01b0382166108d45760405162461bcd60e51b815260206004820181905260248201527f4465706f736974426f7820616464726573732068617320746f206265207365746044820152606401610536565b6108dc6113da565b6108e7600033611465565b6108ff6000805160206122e983398151915233611465565b6109297ffda70c2cc66a36c14884ee85424961f51b1d92b4494751699b6d105b3bcbcba833611465565b8560405160200161093a9190611fa3565b60408051601f19818403018152828252805160209182012060cc5560c980546001600160a01b038a81166001600160a01b03199283161790925560ca80548a841690831617905560cb805489841690831617905560cd8054928816929091168217905560008452908301527fc968af77923193016f61d74ba6827296db5e1f37ec4fab3ad1ef20e193395e59910160405180910390a1801561081f576000805461ff0019169055505050505050565b600054610100900460ff1680610a02575060005460ff16155b610a1e5760405162461bcd60e51b8152600401610536906120bb565b600054610100900460ff16158015610a40576000805461ffff19166101011790555b610a4d8787878787610827565b60cf80546001600160a01b0319166001600160a01b0384161790558015610a7a576000805461ff00191690555b50505050505050565b60c9546000906001600160a01b03163314610ae05760405162461bcd60e51b815260206004820152601c60248201527f53656e646572206973206e6f742061204d65737361676550726f7879000000006044820152606401610536565b848460cc548214158015610b6f57506040518060400160405280600781526020016613585a5b9b995d60ca1b815250604051602001610b1f9190611fa3565b604051602081830303815290604052805190602001208214610b5d57600082815260ce60205260409020546001600160a01b03828116911614610b6f565b60cd546001600160a01b038281169116145b610bbb5760405162461bcd60e51b815260206004820152601b60248201527f526563656976657220636861696e20697320696e636f727265637400000000006044820152606401610536565b6000610bc7868661146f565b60208101519091506001600160a01b038116610c1a5760405162461bcd60e51b815260206004820152601260248201527124b731b7b93932b1ba103932b1b2b4bb32b960711b6044820152606401610536565b60cf5460408381015190516340c10f1960e01b81526001600160a01b03848116600483015260248201929092529116906340c10f1990604401600060405180830381600087803b158015610c6d57600080fd5b505af1158015610c81573d6000803e3d6000fd5b50929b9a5050505050505050505050565b610c9d600033610d4e565b610cb95760405162461bcd60e51b815260040161053690612109565b60cf546001600160a01b0382811691161415610d0d5760405162461bcd60e51b81526020600482015260136024820152724d757374206265206e6577206164647265737360681b6044820152606401610536565b60cf80546001600160a01b0319166001600160a01b0392909216919091179055565b6000828152609760205260408120610d479083611508565b9392505050565b60009182526065602090815260408084206001600160a01b0393909316845291905290205460ff1690565b610d916000805160206122e983398151915233610d4e565b610dad5760405162461bcd60e51b81526004016105369061207a565b60cd805460ff60a01b19169055565b60ca546001600160a01b0316331480610ddb5750610ddb600033610d4e565b610df75760405162461bcd60e51b815260040161053690612109565b60008282604051602001610e0c929190611f93565b60408051601f198184030181529181528151602092830120600081815260ce9093529120549091506001600160a01b0316610e895760405162461bcd60e51b815260206004820152601860248201527f546f6b656e204d616e61676572206973206e6f742073657400000000000000006044820152606401610536565b600090815260ce6020526040902080546001600160a01b03191690555050565b60008181526097602052604081206104fc90611514565b60ca546001600160a01b0316331480610edf5750610edf600033610d4e565b610efb5760405162461bcd60e51b815260040161053690612109565b60008383604051602001610f10929190611f93565b60408051601f198184030181529181528151602092830120600081815260ce9093529120549091506001600160a01b031615610f8e5760405162461bcd60e51b815260206004820152601c60248201527f546f6b656e204d616e6167657220697320616c726561647920736574000000006044820152606401610536565b6001600160a01b038216610fe45760405162461bcd60e51b815260206004820152601f60248201527f496e636f727265637420546f6b656e204d616e616765722061646472657373006044820152606401610536565b600090815260ce6020526040902080546001600160a01b0319166001600160a01b03929092169190911790555050565b6105ce828261151e565b611029600033610d4e565b6110755760405162461bcd60e51b815260206004820152601e60248201527f44454641554c545f41444d494e5f524f4c4520697320726571756972656400006044820152606401610536565b6001600160a01b0381166110cb5760405162461bcd60e51b815260206004820181905260248201527f4465706f736974426f7820616464726573732068617320746f206265207365746044820152606401610536565b60cd54604080516001600160a01b03928316815291831660208301527fc968af77923193016f61d74ba6827296db5e1f37ec4fab3ad1ef20e193395e59910160405180910390a160cd80546001600160a01b0319166001600160a01b0392909216919091179055565b60cb546040516311be333d60e11b81523360048201526001600160a01b039091169063237c667a90602401600060405180830381600087803b15801561117957600080fd5b505af115801561118d573d6000803e3d6000fd5b505050506111ef6040518060400160405280600781526020016613585a5b9b995d60ca1b8152506040516020016111c49190611fa3565b60408051601f19818403018152919052805160209091012060cd546001600160a01b031633846112f5565b50565b60006001600160e01b03198216637965db0b60e01b14806104fc57506301ffc9a760e01b6001600160e01b03198316146104fc565b6000828152606560205260409020600101546112438133611544565b6105bf83836115a8565b6000610d47836001600160a01b03841661162e565b6001600160a01b03811633146112d25760405162461bcd60e51b815260206004820152602f60248201527f416363657373436f6e74726f6c3a2063616e206f6e6c792072656e6f756e636560448201526e103937b632b9903337b91039b2b63360891b6064820152608401610536565b6112dc828261167d565b5050565b6000610d47836001600160a01b0384166116e4565b80156113605760cf546040516338b5bd8d60e21b8152336004820152602481018390526001600160a01b039091169063e2d6f63490604401600060405180830381600087803b15801561134757600080fd5b505af115801561135b573d6000803e3d6000fd5b505050505b600061136c83836117d7565b60c954604051634a24490160e11b81529192506001600160a01b0316906394489202906113a190889088908690600401612034565b600060405180830381600087803b1580156113bb57600080fd5b505af11580156113cf573d6000803e3d6000fd5b505050505050505050565b600054610100900460ff16806113f3575060005460ff16155b61140f5760405162461bcd60e51b8152600401610536906120bb565b600054610100900460ff16158015611431576000805461ffff19166101011790555b61143961182f565b61144161182f565b61144961182f565b61145161182f565b80156111ef576000805461ff001916905550565b6105a78282611899565b6040805160808101825260006060820181815282526020820181905291810191909152600161149e84846118a3565b600c8111156114af576114af61227b565b146114fc5760405162461bcd60e51b815260206004820181905260248201527f4d6573736167652074797065206973206e6f7420455448207472616e736665726044820152606401610536565b610d4782840184611ec7565b6000610d4783836118eb565b60006104fc825490565b60008281526065602052604090206001015461153a8133611544565b6105bf838361167d565b61154e8282610d4e565b6112dc57611566816001600160a01b03166014611915565b611571836020611915565b604051602001611582929190611fbf565b60408051601f198184030181529082905262461bcd60e51b825261053691600401612067565b6115b28282610d4e565b6112dc5760008281526065602090815260408083206001600160a01b03851684529091529020805460ff191660011790556115ea3390565b6001600160a01b0316816001600160a01b0316837f2f8788117e7eff1d82e926ec794901d17c78024a50270940304540a733656f0d60405160405180910390a45050565b6000818152600183016020526040812054611675575081546001818101845560008481526020808220909301849055845484825282860190935260409020919091556104fc565b5060006104fc565b6116878282610d4e565b156112dc5760008281526065602090815260408083206001600160a01b0385168085529252808320805460ff1916905551339285917ff6391f5c32d9c69d2a47ea670b442974b53935d1edc7fd64eb21e047a839171b9190a45050565b600081815260018301602052604081205480156117cd5760006117086001836121e5565b855490915060009061171c906001906121e5565b905081811461178157600086600001828154811061173c5761173c6122a7565b906000526020600020015490508087600001848154811061175f5761175f6122a7565b6000918252602080832090910192909255918252600188019052604090208390555b855486908061179257611792612291565b6001900381819060005260206000200160009055905585600101600086815260200190815260200160002060009055600193505050506104fc565b60009150506104fc565b60408051608081018252600160608083019182529082526001600160a01b0385166020808401919091528284018590529251909261181791839101612138565b60405160208183030381529060405291505092915050565b600054610100900460ff1680611848575060005460ff16155b6118645760405162461bcd60e51b8152600401610536906120bb565b600054610100900460ff16158015611451576000805461ffff191661010117905580156111ef576000805461ff001916905550565b6112dc82826115a8565b6000806118b283850185611bb8565b90506118bf602082612243565b6118df576118d76118d284838188612184565b6118a3565b9150506104fc565b6118d783850185611ca9565b6000826000018281548110611902576119026122a7565b9060005260206000200154905092915050565b606060006119248360026121c6565b61192f9060026121ae565b67ffffffffffffffff811115611947576119476122bd565b6040519080825280601f01601f191660200182016040528015611971576020820181803683370190505b509050600360fc1b8160008151811061198c5761198c6122a7565b60200101906001600160f81b031916908160001a905350600f60fb1b816001815181106119bb576119bb6122a7565b60200101906001600160f81b031916908160001a90535060006119df8460026121c6565b6119ea9060016121ae565b90505b6001811115611a62576f181899199a1a9b1b9c1cb0b131b232b360811b85600f1660108110611a1e57611a1e6122a7565b1a60f81b828281518110611a3457611a346122a7565b60200101906001600160f81b031916908160001a90535060049490941c93611a5b8161222c565b90506119ed565b508315610d475760405162461bcd60e51b815260206004820181905260248201527f537472696e67733a20686578206c656e67746820696e73756666696369656e746044820152606401610536565b60008083601f840112611ac357600080fd5b50813567ffffffffffffffff811115611adb57600080fd5b602083019150836020828501011115611af357600080fd5b9250929050565b8035600d8110611b0957600080fd5b919050565b600082601f830112611b1f57600080fd5b813567ffffffffffffffff80821115611b3a57611b3a6122bd565b604051601f8301601f19908116603f01168101908282118183101715611b6257611b626122bd565b81604052838152866020858801011115611b7b57600080fd5b836020870160208301376000602085830101528094505050505092915050565b600060208284031215611bad57600080fd5b8135610d47816122d3565b600060208284031215611bca57600080fd5b5035919050565b60008060408385031215611be457600080fd5b823591506020830135611bf6816122d3565b809150509250929050565b60008060008060608587031215611c1757600080fd5b843593506020850135611c29816122d3565b9250604085013567ffffffffffffffff811115611c4557600080fd5b611c5187828801611ab1565b95989497509550505050565b60008060408385031215611c7057600080fd5b50508035926020909101359150565b600060208284031215611c9157600080fd5b81356001600160e01b031981168114610d4757600080fd5b600060208284031215611cbb57600080fd5b610d4782611afa565b60008060208385031215611cd757600080fd5b823567ffffffffffffffff811115611cee57600080fd5b611cfa85828601611ab1565b90969095509350505050565b600080600060408486031215611d1b57600080fd5b833567ffffffffffffffff811115611d3257600080fd5b611d3e86828701611ab1565b9094509250506020840135611d52816122d3565b809150509250925092565b600080600080600060a08688031215611d7557600080fd5b853567ffffffffffffffff811115611d8c57600080fd5b611d9888828901611b0e565b9550506020860135611da9816122d3565b93506040860135611db9816122d3565b92506060860135611dc9816122d3565b91506080860135611dd9816122d3565b809150509295509295909350565b60008060008060008060c08789031215611e0057600080fd5b863567ffffffffffffffff811115611e1757600080fd5b611e2389828a01611b0e565b9650506020870135611e34816122d3565b94506040870135611e44816122d3565b93506060870135611e54816122d3565b92506080870135611e64816122d3565b915060a0870135611e74816122d3565b809150509295509295509295565b60008060408385031215611e9557600080fd5b823567ffffffffffffffff811115611eac57600080fd5b611eb885828601611b0e565b95602094909401359450505050565b60008183036060811215611eda57600080fd5b6040516060810167ffffffffffffffff8282108183111715611efe57611efe6122bd565b816040526020841215611f1057600080fd5b6080830193508184108185111715611f2a57611f2a6122bd565b5082604052611f3885611afa565b8152815260208401359150611f4c826122d3565b81602082015260408401356040820152809250505092915050565b60008151808452611f7f8160208601602086016121fc565b601f01601f19169290920160200192915050565b8183823760009101908152919050565b60008251611fb58184602087016121fc565b9190910192915050565b7f416363657373436f6e74726f6c3a206163636f756e7420000000000000000000815260008351611ff78160178501602088016121fc565b7001034b99036b4b9b9b4b733903937b6329607d1b60179184019182015283516120288160288401602088016121fc565b01602801949350505050565b8381526001600160a01b038316602082015260606040820181905260009061205e90830184611f67565b95945050505050565b602081526000610d476020830184611f67565b60208082526021908201527f4155544f4d415449435f4445504c4f595f524f4c4520697320726571756972656040820152601960fa1b606082015260800190565b6020808252602e908201527f496e697469616c697a61626c653a20636f6e747261637420697320616c72656160408201526d191e481a5b9a5d1a585b1a5e995960921b606082015260800190565b6020808252601590820152742737ba1030baba3437b934bd32b21031b0b63632b960591b604082015260600190565b8151516060820190600d811061215e57634e487b7160e01b600052602160045260246000fd5b82526020838101516001600160a01b031690830152604092830151929091019190915290565b6000808585111561219457600080fd5b838611156121a157600080fd5b5050820193919092039150565b600082198211156121c1576121c1612265565b500190565b60008160001904831182151516156121e0576121e0612265565b500290565b6000828210156121f7576121f7612265565b500390565b60005b838110156122175781810151838201526020016121ff565b83811115612226576000848401525b50505050565b60008161223b5761223b612265565b506000190190565b60008261226057634e487b7160e01b600052601260045260246000fd5b500690565b634e487b7160e01b600052601160045260246000fd5b634e487b7160e01b600052602160045260246000fd5b634e487b7160e01b600052603160045260246000fd5b634e487b7160e01b600052603260045260246000fd5b634e487b7160e01b600052604160045260246000fd5b6001600160a01b03811681146111ef57600080fdfe7164765a3c8bd2513bdfa0c90f1bee9606e920fbf2c9071f310263fbd818684ba2646970667358221220f60d131d38db4ecb7be79f8cb1491f8924885a1aed79df33aed0dd14954341ce64736f6c63430008060033",
  "linkReferences": {},
  "deployedLinkReferences": {}
}